S01800004C504C445F517561645F56325F4B36302E73726563FF
S11300003817FF1F1104000021040000E31800004A
S1130010210400002104000021040000000000006D
S113002000000000000000000000000021040000A7
S1130030210400000000000021040000352300001A
S1130040051A00001B1A0000311A0000471A0000AC
S11300505D1A0000731A0000891A00009F1A00003C
S1130060B51A0000CB1A0000E11A0000F71A0000CC
S11300700D1B0000231B0000391B00004F1B000058
S113008021040000210400002104000021040000D8
S113009021040000210400002104000021040000C8
S11300A0611C0000BB1C0000250E0000CF0E0000E8
S11300B0790F00008F110000971100009F110000BC
S11300C0AD110000B7110000C1110000C311000000
S11300D0C5110000C7110000CF110000D7110000A6
S11300E0E5110000EF110000191200001B120000BE
S11300F01D120000630700002104000093070000A4
S113010021040000C307000021040000F3070000DD
S1130110210400002308000021040000530800000B
S113012021040000B1220000BB22000021040000D1
S113013021040000210400003D22000047220000A9
S11301405122000021040000751F0000000000007F
S11301509D1E0000B31E0000C91E0000DF1E00002B
S1130160AD1D00004523000021040000791D00009E
S1130170531D00002D1D00008F1D000021040000F0
S1130180210400006D1B0000D71B00002D1E000081
S11301902104000091220000210400006B150000DE
S11301A07D1500008F150000A1150000B315000097
S11301B021040000210400002104000021040000A7
S11301C02104000021040000210400002104000097
S11301D02104000021040000210400002104000087
S11301E0ED180000ED180000ED180000ED180000F7
S11304100148804701480047C9170000091F000030
S113042001F064BA0FB4F0B50598069B9DF81C70F2
S11304309DF81D500899099A002B01D14FF41653C9
S1130440DFF84044A0423FD10024DFF83C64366822
S1130450DFF838C4DCF800C05CF4806CDFF82CE40E
S1130460CEF800C0FFB2022F06D1DFF824744FF497
S1130470007CC7F800C00FE0FFB20E2F06D1DFF8F2
S113048014744FF4407CC7F800C005E0DFF808742A
S11304904FF4407CC7F800C0EDB2012D05D1DFF860
S11304A0FC534FF400772F60F4E0EDB20F2D05D12B
S11304B0DFF8EC534FF440772F60EBE0DFF8E453C0
S11304C04FF440772F60E5E0DFF8DC43A0422CD105
S11304D00124DFF8B4633668DFF8B0C3DCF800C089
S11304E05CF4006CDFF8A4E3CEF800C0FFB27C2F0C
S11304F006D1DFF8B8734FF4407CC7F800C005E0BC
S1130500DFF8AC734FF4407CC7F800C0EDB27D2D2A
S113051005D1DFF8A0534FF440772F60BAE0DFF83D
S113052098534FF440772F60B4E0DFF89043266887
S1130530DFF88C43A04213D10224DFF850532D6816
S113054055F48055DFF844733D60DFF878534FF479
S113055040772F60DFF870534FF440772F6099E0B5
S1130560DFF86843A0423CD10324DFF820C3DCF861
S113057000C05CF4005CDFF814E3CEF800C0FFB206
S1130580802F06D1DFF848734FF4407CC7F800C0D1
S11305900FE0FFB22B2F06D1DFF838734FF4407C05
S11305A0C7F800C005E0DFF830734FF4407CC7F8AB
S11305B000C0EDB2812D05D1DFF820534FF4407710
S11305C02F6067E0EDB22A2D05D1DFF814534FF404
S11305D040772F605EE0DFF80C534FF440772F60D4
S11305E058E0DFF80443A04229D10424DFF8FCC218
S11305F0DCF800C05CF4806CDFF8F0E2CEF800C0F8
S1130600FFB2942F06D1DFF8E8724FF4407CC7F8AC
S113061000C005E0DFF8DC724FF4407CC7F800C08E
S1130620EDB2952D05D1DFF8D0524FF440772F600D
S113063030E0DFF8C8524FF440772F602AE00524F9
S1130640DFF8BC02DFF8A4C2DCF800C05CF4006C84
S1130650DFF898E2CEF800C0FFB2652F06D1DFF8CC
S1130660A4724FF4407CC7F800C005E0DFF898722C
S11306704FF4407CC7F800C0EDB2642D05D1DFF81B
S11306808C524FF440772F6004E0DFF884524FF42B
S113069040772F60C57815F0F305C5700025857087
S11306A01D01B6FBF5F5077817F0E007ADB25FEA78
S11306B0152C1CF01F0C5CEA0707077045707601C7
S11306C01B01B6FBF3F3ADB2B3EB4513857A15F01A
S11306D0E00713F01F033B4383729DF81E30012B88
S11306E00BD10B00002B08D0C37853F02003C37048
S11306F0E4B2884B43F8241003E0C17811F0DF0121
S1130700C1709DF81F1001290BD11100002908D0D8
S1130710C17851F08001C170E4B27F4941F82420CE
S113072003E0C17811F07F01C170C17851F00C0170
S1130730C170F0BC5DF814FB02791206FCD5C171DE
S1130740704770B504000D00160005E095F900101F
S11307502000FFF7F1FF6D1C3000461E0028F5D184
S113076070BD80B56D480078800606D56C48007869
S1130770800602D56748006880476848007800060C
S113078006D567480078000602D5634800688047AC
S113079001BD80B563480078800606D562480078BC
S11307A0800602D55B48406880475E4800780006B2
S11307B006D55D480078000602D557484068804752
S11307C001BD80B559480078800606D558480078A0
S11307D0800602D54F488068804754480078000658
S11307E006D553480078000602D54B4880688047F8
S11307F001BD80B54F480078800606D54E48007884
S1130800800602D54348C06880474A4800780006FD
S113081006D549480078000602D53F48C06880479D
S113082001BD80B545480078800606D54448007867
S1130830800602D5374800698047404800780006A2
S113084006D53F480078000602D533480069804742
S113085001BD80B53B480078800606D53A4800784B
S1130860800602D52B484069804736480078000648
S113087006D535480078000602D5274840698047E8
S113088001BD000000A006405C04FF1F348004404A
S1130890089004403890044044A00440049004406C
S11308A03C90044040A0044000B0064000D0044006
S11308B010B0044004D004400CB004406004FF1F96
S11308C000C006400CC0044008C0044000D00640EC
S11308D010D004402CA0044044B0044014D0044080
S11308E028A0044040B0044000A00E4028800440EA
S11308F060D004403CB0044064D0044038B00440AC
S113090000B00E4024C0044020D0044020C0044065
S113091024D004400407FF1F1C07FF1F04A0064047
S113092003A0064004B0064003B0064004C00640DD
S113093003C0064004D0064003D0064004A00E4085
S113094003A00E4004B00E4003B00E4010B50C00DE
S11309501168012902D0022904D009E040B251688B
S1130960884705E0916808709068401C9060FFE734
S11309702068401C206010BD30B41C0000230025FA
S11309800570401C002A19D0096800290AD13021B9
S113099001705B1C180030BC7047303511000570C5
S11309A0401C5B1C0029F5D091FBF4F204FB1215EA
S11309B0002DF2D5E94311F13105EFE7096800296B
S11309C008D1302101705B1CE4E737351100057054
S11309D0401C5B1C0029DDD0B1FBF4F204FB1215B2
S11309E00A2DF2D23035F1E7F8B504000D001600F7
S11309F01F0005E03A0031003020FFF7A7FF641C18
S1130A00AC42F7DBF1BDF8B504000D0016001F0081
S1130A1005E03A0031002020FFF798FF641CAC4247
S1130A20F7DBF1BD2DE9F04F8DB005001600002075
S1130A3000900C0005E02A0000A91800FFF786FFCB
S1130A40641C94F90030002B00F0C881252B12D0CF
S1130A500A2B05D02A0000A91800FFF777FF09E048
S1130A602A0000A90D20FFF771FF2A0000A90A201F
S1130A70FFF76CFFE4E70027002101E057F00107CE
S1130A8000291CD1641C94F9000020280BD02328D1
S1130A900FD02B2804D02D28F0D0302806D00BE01E
S1130AA057F00207ECE757F00407E9E757F00807A7
S1130AB0E6E757F01007E3E7641E0121E0E75FF083
S1130AC00008002104E00A2000FB0830B0F13008DF
S1130AD0002909D1641C94F9003018003038092821
S1130AE0F1D9641E0121F3E7641C94F900002E2857
S1130AF00CD10021FFE7002909D1641C94F90000FE
S1130B0030380928F7D9641E0121F4E7641E641CF7
S1130B1094F900004C2806D0682802D06C2801D033
S1130B2002E002E001E000E0641E641C94F900307D
S1130B301800582874D0622800F0D080632800F090
S1130B401881642813D0692811D06E2800F04181DF
S1130B506F2800F0B880702800F0CB80732800F074
S1130B601081752800F0D080782859D063E7306868
S1130B700390361D0A23012203A904A8FFF7FCFEF3
S1130B80824604A81AEB00090398002804D52D20F6
S1130B9002901AF1010A0FE0B80704D52B20029045
S1130BA01AF1010A08E0780704D5202002901AF10E
S1130BB0010A01E0002002905FF0000B380711D514
S1130BC00298002804D02A0000A90298FFF7BEFE6C
S1130BD05FF0010B2B0000AA41465046FFF704FFCB
S1130BE0C24611E0F8070FD42B0000AA4146504634
S1130BF0FFF709FF0298002804D02A0000A90298F0
S1130C00FFF7A4FE5FF0010BBBF1000F07D10298C0
S1130C10002804D02A0000A90298FFF797FE9BE061
S1130C2030680190361D1023002201A904A8FFF7A3
S1130C30A3FE824604A81AEB00095FF0000B3807F4
S1130C4015D5F8060BD52A0000A93020FFF77EFE43
S1130C502A0000A97820FFF779FE5FF0010B2B0032
S1130C6000AA41465046FFF7BFFEC24619E0F80706
S1130C7017D4F80601D51AF1020A2B0000AA41463E
S1130C805046FFF7C0FEF8060BD52A0000A9302015
S1130C90FFF75CFE2A0000A97820FFF757FE5FF0FB
S1130CA0010BF8060ED5BBF1000F0BD12A0000A9E9
S1130CB03020FFF74BFE2A0000A97820FFF746FEFC
S1130CC01AF1020A48E030680190361D0823002218
S1130CD001A904A8FFF750FE82461FE03068019086
S1130CE0361D0223002201A904A8FFF745FE82460F
S1130CF014E030680190361D1023002201A904A8D5
S1130D00FFF73AFE824609E030680190361D0A2357
S1130D10002201A904A8FFF72FFE824604A81AEBBB
S1130D200009380707D52B0000AA41465046FFF7B3
S1130D305BFEC24610E0F8070ED42B0000AA414621
S1130D405046FFF760FE07E02A0000A999F9000069
S1130D50FFF7FCFDB9F1010999F900000028F3D16E
S1130D60F80705D52B0000AA41465046FFF74BFE75
S1130D7066E696F90000361D2A0000A9FFF7E6FD95
S1130D805EE6D6F80090361DB9F1000F20D0484633
S1130D9000F03AF88246F8070ED42B0000AA414628
S1130DA05046FFF730FE07E02A0000A999F9000039
S1130DB0FFF7CCFD19F1010999F900000028F3D1DE
S1130DC0F80705D52B0000AA41465046FFF71BFE45
S1130DD036E63068361D0099016031E600980DB0A2
S1130DE0BDE8F08F0EB400B584B00121009105492F
S1130DF0019105AA010000A8FFF714FE04B05DF8F4
S1130E0010FB00000D2300000021002802D1002067
S1130E1007E0491C0200501C92F90020002AF8D176
S1130E200800704780B582480068002809D57D48CD
S1130E30006880477E48006850F000407C490860A4
S1130E4044E07B480068C00009D576484068804784
S1130E507748006850F080507549086036E074485F
S1130E600068000109D56F488068804770480068B1
S1130E7050F000606E49086028E06D480068800109
S1130E8009D56848006980476948006850F00070D7
S1130E90674908601AE066480068000309D561489C
S1130EA0C06880476248006850F4002060490860C8
S1130EB00CE05F480068800308D55A4840698047C1
S1130EC05B48006850F400305949086001BD80B5A2
S1130ED058480068002809D5534800688047554899
S1130EE0006850F000405349086044E051480068ED
S1130EF0C00009D54C48406880474E48006850F00F
S1130F0080504C49086036E04A480068000109D521
S1130F104548806880474748006850F0006045496C
S1130F20086028E043480068800109D53E4800690C
S1130F3080474048006850F000703E4908601AE05D
S1130F403C480068000309D53748C06880473948E1
S1130F50006850F40020374908600CE03548006808
S1130F60800308D53048406980473248006850F40F
S1130F7000303049086001BD80B52F480068002862
S1130F8009D52A48006880472B48006850F0004083
S1130F902949086044E028480068C00009D523486E
S1130FA0406880472448006850F080502249086017
S1130FB036E021480068000109D51C488068804754
S1130FC01D48006850F000601B49086028E01A487A
S1130FD00068800109D515480069804716480068F3
S1130FE050F00070144908601AE0134800680003C8
S1130FF009D50E48C06880470F48006850F40020A7
S11310000D4908600CE00C480068800308D50748C7
S1131010406980470848006850F400300649086079
S113102001BD0000B006FF1FC806FF1FE006FF1F3A
S11310302CC002402CD002402CC00A40C9B2202946
S113104006D2026B012313FA01F11143016306E096
S1131050C26A0123203913FA01F11143C1627047B6
S1131060C9B2202904D2006BC84010F0010004E08A
S1131070C06A2039C84010F00100C0B2704738B5CA
S113108005000C002100C9B22800FFF7E9FF002881
S113109021D02100C9B22800FFF7D0FF574885426C
S11310A00BD1E4B2574850F82400002813D0E4B21E
S11310B0544850F8240080470DE0514885420AD135
S11310C0E4B2514850F82400002804D0E4B24E4859
S11310D050F82400804731BD38B504000D002900C4
S11310E0C9B22000FFF7BCFF012812D14348844253
S11310F010D1EDB2434850F82500002804D0EDB2D9
S1131100404850F8250080472900C9B22000FFF765
S113111095FF31BD3A4884420BD1EDB23A4850F8BC
S113112025000028F0D0EDB2374850F8250080475C
S1131130EAE7EEE710B500240FE0E4B2334810EB21
S11311400410007A012807D12100C9B2E4B22001B9
S11311502E4A8058FFF7C0FF641CE4B2102C15D24D
S1131160E4B22001294940580028F5D0E4B22748C8
S113117010EB0410007A0228DFD12100C9B2E4B2D6
S11311802001224A8058FFF77AFFE5E710BD80B5B9
S1131190FFF7D0FF01BD1E480421016070471C48C1
S11311A00068810701D51A490860704718485FF440
S11311B000310160704716485FF480310160704768
S11311C070477047704780B5FFF7B4FF01BD114801
S11311D00421016070470F480068810701D50D495B
S11311E0086070470B485FF400310160704709489C
S11311F05FF480310160704700000000004002404D
S113120000400A407805FF1FB805FF1F7804FF1F40
S11312102040024020400A4070477047704750F811
S1131220041B61B150F8042BD30744BFA9F1010397
S11312309A18002342F8043B091FFAD1EFE77047DC
S113124000B587B06D4801904FF4805002900120A2
S11312508DF8100001208DF8110001A984B06846B2
S1131260142200F0DFF80FBC00F008F96348019085
S11312704FF40050029001208DF8100001208DF8E9
S1131280110001A984B06846142200F0CBF80FBC09
S113129000F0F4F8594801904FF480400290012086
S11312A08DF8100001208DF8110001A984B0684662
S11312B0142200F0B7F80FBC00F0E0F84F4801909A
S11312C04FF40040029001208DF8100001208DF8A9
S11312D0110001A984B06846142200F0A3F80FBCE1
S11312E000F0CCF8454801905FF480300290012072
S11312F08DF8100001208DF8110001A984B0684612
S1131300142200F08FF80FBC00F0B8F83B480190AD
S11313105FF40030029001208DF8100001208DF858
S1131320110001A984B06846142200F07BF80FBCB8
S113133000F0A4F8314801905FF48020029001206D
S11313408DF8100001208DF8110001A984B06846C1
S1131350142200F067F80FBC00F090F827480190C1
S11313605FF40020029001208DF8100001208DF818
S1131370110001A984B06846142200F053F80FBC90
S113138000F07CF807B000BD80B500280BD002281F
S113139013D00DD304281AD014D3062821D01BD37C
S11313A0072823D027E00C21144800F0D9F822E0C4
S11313B00D21124800F0D4F81DE00E210F4800F072
S11313C0CFF818E00F210D4800F0CAF813E01021FF
S11313D00A4800F0C5F80EE01121084800F0C0F8F2
S11313E009E01221054800F0BBF804E0132103488A
S11313F000F0B6F8FFE701BD0000000080F00F40E8
S113140038B5040000250020050007E0E00702D5F8
S11314102800FFF7B9FFE4B264086D1C082DF5DB62
S113142031BD0000103A07D330B4B1E83810103A97
S1131430A0E83810F9D230BC530724BFB1E8081033
S1131440A0E8081044BF51F8043B40F8043BD2071D
S113145024BF31F8022B20F8022B44BF0B78037011
S11314607047083A07D3B1E80810083A40F8043B3B
S113147040F804CBF7D25307E4E700000FB42DE99A
S1131480F8430A9850F48074089F099D9DF82C80B5
S11314909DF82D900C9E4B48874203D335214A4832
S11314A000F0B4F85FFA88F8B8F1020F03D33621DC
S11314B0454800F0ABF85FFA89F9B9F1020F03D39C
S11314C03721414800F0A2F84048874210D14049F2
S11314D000205FFA88F8B8F1010F25D17A692A4310
S11314E07A615FFA89F9B9F1010F1BD17D601EE0C1
S11314F03848874202D138490120EAE73748874211
S113150002D137490220E4E73648874202D13649FE
S11315100320DEE73548874202D135490420D8E765
S1131520002019E0BD6002E07A69AA437A610022D2
S113153007E0012393401D4202D0D2B241F8224079
S1131540521CD2B2202AF4D33100002903D0C0B2F5
S1131550284941F820600120BDE8F2035DF814FB3E
S1131560012212FA01F1C160704780B52148006878
S1131570804721485FF0FF31016001BD80B51D48FF
S1131580406880471D485FF0FF31016001BD80B5B0
S11315901848806880471A485FF0FF31016001BD38
S11315A080B51448C068804716485FF0FF31016079
S11315B001BD80B50F480069804713485FF0FF31D3
S11315C0016001BD01F10F40D41F000000F00F4085
S11315D00090044040F00F4000A0044080F00F4011
S11315E000B00440C0F00F4000C0044000F10F40C0
S11315F000D004406C06FF1FA0900440A0A004404B
S1131600A0B00440A0C00440A0D004400A000100DF
S11316100148FFF7E7FBFEE73C210000DFF800F09C
S11316201104FF1FF8B5C0B2C92801D3C820FFE7D1
S1131630C0B2010030290ED032291BD060291CD041
S113164064291DD078291ED096291FD0B42920D012
S1131650C82921D023E01827002506000024C0B2A1
S11316603221B0FBF1F1491E0A00D2B2FF2A1AD18D
S1131670002120E018270125EFE718271825ECE7BB
S113168018271A25E9E713271825E6E70F27182551
S1131690E3E70E271E25E0E70C271C25DDE7602085
S11316A0FFF7C0FF80E0C0B2C9B24A1C90FBF2F25F
S11316B0332A00D3491CC0B23222B0FBF2F2521ECC
S11316C01300DBB2FF2B01D1002207E0C0B2D2B27B
S11316D0531C90FBF3F3332B00D3521CC0B20A23E8
S11316E0B0FBF3F35B1E9C465FFA8CFCBCF1FF0F6E
S11316F001D1002308E0C0B2DBB213F1010C90FB6E
S1131700FCF00B2800D35B1C28485FF0000C80F829
S113171000C02748006850F08050DFF894C0CCF82F
S113172000002448007850F08000DFF888C08CF86E
S1131730000021485FF0980C80F800C01F48007832
S1131740C006FBD41D480078C0F38100C0B2022853
S1131750F8D117F01F001A4F38701A480027077085
S1131760DBB2D2B2C9B2E4B22000FFF757FF15F0E2
S11317701F0050F04000134908701048007880069C
S1131780FBD50E4800784006FBD50B48007810F0D6
S11317903F000949087009480078C0F38100C0B2CD
S11317A00328F8D13000C0B2F2BD00BF01400640AA
S11317B03480044008C0074000400640064006400C
S11317C0044006400540064000B587B04D48006817
S11317D050F478504B4908604B484CF2205101803A
S11317E049484DF62811018048484FF4E9710180B9
S11317F000F0B8F86420FFF715FF00F05FF84448E4
S11318004449096801604248006843490968C1F3D2
S11318100361491CB0FBF1F0404908603C48006892
S11318203D490968C1F30351491CB0FBF1F03C493F
S113183008603748006838490968C1F30341491C06
S1131840B0FBF1F037490860374801905FF4E130AC
S1131850029001A984B068461422FFF7E3FD0FBC8F
S1131860FEF7E0FD26A0FFF7BDFA3048FFF7BAFA0D
S11318702F493048FFF7B6FA284800682E49B0FBD4
S1131880F1F2234800682C49B0FBF1F12B48FFF733
S1131890A9FA244800682849B0FBF1F220480068FE
S11318A02549B0FBF1F12648FFF79CFA2548FFF7DC
S11318B099FA2548FFF796FA07B000BD2348007847
S11318C0C0B210F01F00183021494843214909785B
S11318D0C9B211F01F01491CB0FBF1F00D490860B9
S11318E0704780B51C48FFF77DFA01BD80B51B48E1
S11318F00078C0B2B0F110011948FFF773FA01BDC6
S11319000D0A0000388004400E20054000200540E8
S11319105C04FF1F6C04FF1F448004406004FF1F2D
S11319206804FF1F6404FF1F00B00E40B4200000D1
S11319306C2300006C21000040420F00F4210000E1
S113194018220000F82000006C200000054006402A
S113195080F0FA02044006407022000004ED00E02A
S11319609C2100001C481D4988420BD0002006E041
S113197019491A4A52F8202041F82020401CB0F599
S1131980826FF5D31648144901601649164A174860
S1131990801A03E013780B70521C491C0300581E74
S11319A0002BF7D112491348401A02E000220A70B2
S11319B0491C0200501E002AF8D10F490F4A104852
S11319C0801A03E013780B70521C491C0300581E44
S11319D0002BF7D1704700BF0000FF1F000000007C
S11319E008ED00E05C04FF1F202300003423000006
S11319F07004FF1F3807FF1F1004FF1F2020000082
S1131A006C20000080B5574800688047564800683D
S1131A1050F001005449086001BD80B55148406848
S1131A2080475148006850F002004F49086001BDEA
S1131A3080B54C48806880474B48006850F00400EB
S1131A404949086001BD80B54648C068804746489A
S1131A50006850F008004449086001BD80B5414861
S1131A60006980474048006850F010003E49086013
S1131A7001BD80B53B48406980473B48006850F051
S1131A8020003949086001BD80B536488069804727
S1131A903548006850F040003349086001BD80B506
S1131AA03048C06980473048006850F080002E49B3
S1131AB0086001BD80B52B48006A80472A48006849
S1131AC050F480702849086001BD80B52548406AFB
S1131AD080472548006850F400702349086001BD20
S1131AE080B52048806A80471F48006850F0010094
S1131AF01D49086001BD80B51A48C06A80471A486C
S1131B00006850F400601849086001BD80B51548AC
S1131B10006B80471448006850F4805012490860F4
S1131B2001BD80B50F48406B80470F48006850F4F2
S1131B3000500D49086001BD80B50A48806B80479C
S1131B400948006850F480400749086001BD80B529
S1131B500448C06B80470448006850F400400249C0
S1131B60086001BD1006FF1F2480004080B538487E
S1131B700078C0070CD537480078C00708D531482D
S1131B80006880473248007810F0FE003049087041
S1131B902F48007880070CD52E480078800708D598
S1131BA02948006880472A48007810F0FD00284939
S1131BB008702748007840070CD52648007840076D
S1131BC008D52248006880472148007810F0FB00BF
S1131BD01F49087001BD80B51F480078C0070CD5A7
S1131BE01E480078C00708D51648406880471A4840
S1131BF0007810F0FE001849087017480078800734
S1131C000CD516480078800708D50F4840688047EF
S1131C101148007810F0FD000F4908700E48007854
S1131C2040070CD50D480078400708D507484068A0
S1131C3080470948007810F0FB000749087001BD8F
S1131C4000000000F805FF1F0006FF1F0806FF1F25
S1131C5020C00C4021C00C4020D00C4021D00C40AE
S1131C6080B52E480078800726D52B480068804729
S1131C702B480078000705D52948007850F0080063
S1131C802749087026480078800705D5244800783D
S1131C9050F002002249087020480078C00605D59B
S1131CA01E48007850F010001C4908701B4800784A
S1131CB050F002001949087001BD80B51948007838
S1131CC0800726D5144840688047174800780007E5
S1131CD005D51548007850F00800134908701248DB
S1131CE00078800705D51048007850F002000E49AE
S1131CF008700C480078C00605D50A48007850F0F2
S1131D001000084908700748007850F0020005499F
S1131D10087001BD000000008006FF1F036006403C
S1131D2008600640037006400870064080B5DFF87E
S1131D307800006850F00070DFF86C100860DFF87D
S1131D4064000068002803D0DFF85800006880476A
S1131D5001BD80B5DFF85000006850F00060DFF886
S1131D6048100860DFF83C004068002803D0DFF822
S1131D7034004068804701BD80B5DFF828008068E2
S1131D80002803D0DFF81C008068804701BD80B5BF
S1131D90DFF81000C068002803D0DFF80800C0682E
S1131DA0804701BD5006FF1F04000C4080B51A484F
S1131DB0006840060CD518480068800608D5174806
S1131DC0006880471448006830F0400012490860F9
S1131DD014480068C0070CD50F480068800308D574
S1131DE00F48006880470F48006850F001000D4913
S1131DF008600D48006880070CD507480068800318
S1131E0008D50748006880470748006850F002007A
S1131E100549086001BD0000006003408C06FF1FF7
S1131E209006FF1F146003403C60034080B51748D0
S1131E30006848F21001084217D0154800680028CD
S1131E4013D01348006880471048006850F480405D
S1131E500E4908600D48006850F400400B490860C2
S1131E600C484FF6FF7101600DE00A480068002835
S1131E7009D007484068002805D0054840688047D5
S1131E8004480549016001BD000000000050044001
S1131E90FC06FF1F0C5004400000FFFF80B51548EE
S1131EA0006880471448006850F001001249086037
S1131EB001BD80B50F48406880471048006850F065
S1131EC001000E49086001BD80B50A48806880475A
S1131ED00B48006850F001000949086001BD80B555
S1131EE00448C06880470748006850F0010005496D
S1131EF0086001BD9406FF1F0C7103401C71034070
S1131F002C7103403C710340002472B600F013F8B6
S1131F1062B672B6FFF794F962B61348844208D3E6
S1131F20FF20FFF76DFA122210491148FEF709FC51
S1131F300024641CF1E700B587B00D4801904FF40C
S1131F401650029095208DF80D0094208DF80C0009
S1131F5001A984B068461422FFF764FA0FBCFEF7A7
S1131F6061FA07B000BD000021A10700542300005E
S1131F7000A00E4080B516480068C00709D5134874
S1131F80006880471248006850F00100104908605A
S1131F901AE00F480068800709D50C48406880475C
S1131FA00B48006850F00200094908600CE008483A
S1131FB00068400708D505488068804704480068E1
S1131FC050F004000249086001BD0000A406FF1F90
S1131FD014D00340453A5C536861776E446F63756F
S1131FE06D656E74735C4941525F576F726B5370C9
S1131FF06163655C4C504C445F517561645F56325B
S11320005C736F757263655C6C69625C4C504C44C4
S11320105C48575C48575F4750494F2E63000000A7
S113202070B4104C24680F4D2D6855F47F050D4E87
S11320303560090611F0706151EA0070110511F460
S113204070010843190411F470210843064908601B
S1132050002000E0401CC0B29842FBD30148046059
S113206070BC704700F00140448004402A2A2A2AA8
S11320702A2A2A2A2A2A2A2A2A2A2A2A2A2A2A2ABC
S11320802A2A2A2A2A2A2A2A2A2A2A2A2A2A2A2AAC
S11320902A2A2A2A2A2A2A2A2A2A2A2A2A2A2A2A9C
S11320A02A2A2A2A2A2A2A2A2A2A2A2A2A2A2A2A8C
S11320B00D0A00002A2A2A2A2A2A2A2A2A2A2A2017
S11320C0BBF9D3DAC0ADC6D5C0BCB5C24B3630B54A
S11320D0D7B2E3BFE220687474703A2F2F77777712
S11320E02E6C706C642E636E202A2A2A2A2A2A2ACD
S11320F02A2A2A2A0D0A0000CFB5CDB3C6F4B6AFFA
S1132100CDEAB1CFA3ACC8F4D2AABDFBD3C3B5F713
S1132110CAD4CAE4B3F6C7EBB6A8D2E55052494EC6
S1132120545F4F4E5F4F4646CEAA31286B36305F20
S1132130636172642E68290D0A000000B6CFD1D401
S1132140CAA7B0DCB7A2C9FAD3DA20257320B4FA3F
S1132150C2EBB5C4B5DA20256420D0D0A3ACC7EB5C
S1132160BCECB2E9B2CECAFDA1A30A004F534B693D
S11321706E65746973B9CCBCFEBFE2B0E6B1BE3A19
S11321802573096D61696C3A737570706F72744070
S11321906C706C642E636E0D0A0000000D0A2A2A0E
S11321A02A2ABDF8C8EBCEB4B6A8D2E5D6D0B6CFAD
S11321B02C496E74657272757074204E756D62650B
S11321C0722025642A2A2A2A2A0D0A0010B50749F2
S11321D079441831064C7C44163404E0081D0A681E
S11321E0511888470146A142F8D110BD740000007F
S11321F080000000CFB5CDB3C4DABACBCAB1D6D310
S11322003A25644D487A09D7DCCFDFCAB1D6D33A30
S113221025644D487A0D0A00466C6578427573CA88
S1132220B1D6D33A25644D487A09466C617368CABD
S1132230B1D6D33A25644D487A0D0A0080B50748D3
S11322400068804701BD80B504484068804701BDEF
S113225080B502488068804701BD00006006FF1F0A
S1132260BFEFFFFFC80200007004FF1F0000000062
S11322700D0A2A2A2A2AC4DABACBB7A2C9FAD3B2D7
S1132280BCFEB4EDCEF32A2A2A2A2A0D0A00000045
S113229080B50548006850F0800003490860034891
S11322A00068804701BD0000000004408806FF1F4D
S11322B080B505480068804701BD80B50248406884
S11322C0804701BD000000007004FF1F00F009F802
S11322D0002801D0FFF77AFF0020FFF715FE00F079
S11322E002F80120704700F001B8000007463846A4
S11322F000F002F8FBE70000C046C046024A1100A5
S11323001820ABBEFBE700BF2600020080B5010029
S113231049B20248FEF710FA01BD000000B00E40B9
S1132320FFFFFFFFFFFFFFFFFFFFFFFFFFFFFFFFB9
S113233000E1F50580B502480068804701BD000052
S1132340F806FF1F80B502480068804701BD000001
S11323503407FF1FC7EBCAE4C8EB3A0D0A000000BC
S1132360C046C046C046C046FFF7B0FF332E3033E8
S10723700000000065
S903236178
