:10000000B818FF1F11040000210400009D3E0000ED
:100010002104000021040000210400000000000071
:1000200000000000000000000000000021040000AB
:1000300021040000000000002104000035430000FE
:10004000353C00004B3C0000613C0000773C000068
:100050008D3C0000A33C0000B93C0000CF3C0000F8
:10006000E53C0000FB3C0000113D0000273D000086
:100070003D3D0000533D0000693D00007F3D000014
:1000800021040000210400002104000021040000DC
:1000900021040000210400002104000021040000CC
:1000A0000B1E0000651E0000292E0000D32E00004C
:1000B0007D2F0000A1330000A9330000B133000000
:1000C000C1330000CB330000D5330000D73300002C
:1000D000D9330000DB330000E3330000EB330000D2
:1000E000FB330000053400002D3400002F340000E5
:1000F000313400005B110000210400008B1100006E
:1001000021040000BB11000021040000EB110000DD
:10011000210400001B120000210400004B1200000B
:1001200021040000193C0000233C000021040000D1
:100130002104000021040000810C00008B0C000051
:10014000990C000021040000C541000000000000DF
:10015000A52D0000BB2D0000D12D0000E72D0000D3
:10016000D54000004543000021040000A1400000EC
:100170007B40000055400000B74000002104000013
:1001800021040000613F0000CB3F0000554100000A
:1001900021040000AD420000210400000B220000F9
:1001A0001D2200002F2200004122000053220000E7
:1001B00021040000210400002104000021040000AB
:1001C000210400002104000021040000210400009B
:1001D000210400002104000021040000210400008B
:1001E0009F3E00009F3E00009F3E00009F3E00009B
:100410000148804701480047A13D00001D38000009
:1004200003F03DBD0FB43EB50698DFF8F8178842DB
:100430000AD100200500DFF8F007006850F0807056
:10044000DFF8E417086021E00698DFF8E01788423B
:100450000AD101200500DFF8D007006850F00070D5
:10046000DFF8C417086011E00698DFF8C417884267
:100470000AD102200500DFF8BC07006850F0807048
:10048000DFF8B017086001E0002052E09DF81C0082
:10049000C0070AD506A984B068461C2200F03CFCBF
:1004A0000FBC00F07AF804002BE09DF81C008007D8
:1004B0000AD506A984B068461C2200F02DFC0FBCAA
:1004C00000F000F904001CE09DF81C0040070AD56C
:1004D00006A984B068461C2200F01EFC0FBC00F088
:1004E000ADFB04000DE09DF81C00000709D506A92E
:1004F00084B068461C2200F00FFC0FBC00F0BCFB6F
:100500000400E4B2012C12D10C9800280FD0EDB2F7
:10051000DFF824070C9940F825109DF82C000128DD
:1005200005D10698006850F0400006990860200048
:10053000C0B23EBC5DF814FB2DE9F84305000E0087
:1005400091461F00089C3A00D2B23100C9B228007F
:1005500000F0FEF8002801D100201CE0E4B2242CB9
:1005600003D142F21070B0EB0909A868009000981E
:10057000401C00FB09F042F21071B0FBF1F0804624
:10058000F6B215EBC600E4B2C460F6B215EBC600D5
:10059000C0F810800120BDE8F2830FB42DE9F041CE
:1005A000089D099E9DF828709DF829C0DDF818E087
:1005B000DFF8F00600680100A94201D200207DE0CA
:1005C000802000FB05F0B1FBF0F002004FF6FF7851
:1005D000404572D2072004001300402000FB05F0C4
:1005E000B1FBF0F002004FF6FF78404543D2062001
:1005F000040013006801B1FBF0F002004FF6FF7831
:10060000404538D20520040013002801B1FBF0F06A
:1006100002004FF6FF7840452DD20420040013005D
:10062000E800B1FBF0F002004FF6FF78404522D21F
:10063000032004001300A800B1FBF0F002004FF605
:10064000FF78404517D20220040013006800B1FB78
:10065000F0F002004FF6FF7840450CD20120040074
:100660001300B1FBF5F002004FF6FF78404502D2CF
:100670000020040013000020CEF800000020CEF877
:1006800004000020CEF84C00CEF80830FFB2B801CC
:1006900010F0C0005FFA8CFC1CF03F0858EA000024
:1006A000CEF86800CEF86460E4B214F0070050F0B1
:1006B0000800CEF80000012000E00020BDE8F001B5
:1006C0005DF814FB0FB430B49DF81B20089B029C0E
:1006D000C020C4F88400002020600020606000205A
:1006E000E0640020A0607FF00100C4F880000020DA
:1006F000A0672068D2B212F0070555F0080528431C
:100700002060206830F020002060180000281BD0F6
:10071000DFF81005844202D1002001000FE0DFF86D
:100720000C05844202D10120010008E0DFF8000539
:10073000844202D10220010001E0002005E0C9B29C
:10074000DFF8F40440F82130012030BC04B07047D9
:1007500010B40300DFF83C05834240F00D81C9B2BC
:1007600000290FD002294BD02BD3042900F086801A
:1007700065D3062900F0C080C0F09F80072900F0F3
:10078000DA80F7E0D2B2032A0AD1DFF81C0500684C
:1007900030F4E06050F44070DFF80C4520600FE06A
:1007A000D2B23D2A0AD1DFF80405006830F4E060D7
:1007B00050F48060DFF8F444206001E000202DE276
:1007C0002BE2D2B2042A0AD1DFF8E404006830F444
:1007D000E06050F44070DFF8D84420600FE0D2B2FF
:1007E0003E2A0AD1DFF8CC04006830F4E06050F40F
:1007F0008060DFF8C044206001E000200EE20CE2DF
:10080000D2B2052A0AD1DFF8B004006830F4E06003
:1008100050F44070DFF8A04420600FE0D2B23F2ACD
:100820000AD1DFF89804006830F4E06050F480608A
:10083000DFF88844206001E00020EFE1EDE1D2B272
:10084000062A0AD1DFF87804006830F4E06050F43A
:100850004070DFF86C4420600FE0D2B2402A0AD129
:10086000DFF86004006830F4E06050F48060DFF886
:100870005444206001E00020D0E1CEE1D2B2072A4A
:100880000AD1DFF84404006830F4E06050F44070AE
:10089000DFF8344420600FE0D2B2602A0AD1DFF8DA
:1008A0002C04006830F4E06050F48060DFF81C44F1
:1008B000206001E00020B1E1AFE1D2B2002A0AD10C
:1008C000DFF80C04006830F4E06050F44070DFF8AA
:1008D000004420600FE0D2B2612A0AD1DFF8F403AD
:1008E000006830F4E06050F48060DFF8E843206096
:1008F00001E0002092E190E1D2B2012A0AD1DFF8B2
:10090000D803006830F4E06050F44070DFF8C8436A
:1009100020600FE0D2B2622A0AD1DFF8C00300687B
:1009200030F4E06050F48060DFF8B043206001E014
:10093000002073E171E1D2B2022A0AD1DFF8A003EC
:10094000006830F4E06050F44070DFF894432060B9
:100950000FE0D2B2632A0AD1DFF88803006830F4CE
:10096000E06050F48060DFF87C43206001E000200C
:1009700054E152E1002051E1DFF86C03834240F082
:10098000BD80C9B20800002807D0012832D008284D
:100990005DD0092800F08680AEE0D2B2082A0AD1E4
:1009A000DFF84803006830F4E06050F44070DFF88E
:1009B0003C4320601DE0D2B20C2A0AD1DFF830039C
:1009C000006830F4E06050F44070DFF824432060A9
:1009D0000FE0D2B2202A0AD1DFF81803006830F401
:1009E000E06050F44070DFF80C43206001E000202C
:1009F00014E112E1D2B2092A0AD1DFF8FC02006840
:100A000030F4E06050F44070DFF8EC4220601DE00C
:100A1000D2B20D2A0AD1DFF8E402006830F4E060B7
:100A200050F44070DFF8D44220600FE0D2B2212AA7
:100A30000AD1DFF8CC02006830F4E06050F4407076
:100A4000DFF8BC42206001E00020E7E0E5E0D2B240
:100A5000082A0AD1DFF89402006830F4E06050F40C
:100A6000C060DFF8884220601BE0D2B20C2A08D1B7
:100A7000DFF87C02006850F4E060DFF87442206028
:100A80000FE0D2B2202A0AD1DFF86802006830F401
:100A9000E06050F4C060DFF85C42206001E00020BC
:100AA000BCE0BAE0D2B2092A0AD1DFF84C020068F1
:100AB00030F4E06050F4C060DFF83C4220601BE09E
:100AC000D2B20D2A08D1DFF83402006850F4E06099
:100AD000DFF8284220600FE0D2B2212A0AD1DFF8E5
:100AE0002002006830F4E06050F4C060DFF810428B
:100AF000206001E0002091E000208FE04C4883421C
:100B000040F08980C9B20800002806D0012823D00F
:100B1000082840D009285DD07BE0D2B20A2A0AD149
:100B2000DFF8E001006830F4E06050F44070DFF876
:100B3000D44120600FE0D2B2322A0AD1DFF8C801D6
:100B4000006830F4E06050F44070DFF8BC41206091
:100B500001E0002062E060E0D2B20B2A0AD1DFF8A7
:100B6000AC01006830F4E06050F44070DFF89C4164
:100B700020600FE0D2B2332A0AD1DFF89401006876
:100B800030F4E06050F44070DFF88441206001E010
:100B9000002043E041E0D2B20A2A0AD1DFF8640122
:100BA000006830F4E06050F4C060DFF85841206025
:100BB0000FE0D2B2322A0AD1DFF84C01006830F4DB
:100BC000E06050F4C060DFF84041206001E00020A8
:100BD00024E022E0D2B20B2A0AD1DFF8300100680B
:100BE00030F4E06050F4C060DFF8204120600FE096
:100BF000D2B2332A0AD1DFF81801006830F4E0607D
:100C000050F4C060DFF80841206001E0002005E0FA
:100C100003E0002002E0002000E0012010BC70474B
:100C200000000000008003403C800440009003402E
:100C300000800B4030800440F006FF1F0FB49DF889
:100C40001210009A506D50F0010050650020D064E1
:100C5000002050604FF6FF709060D2F88000C9B25B
:100C60000843C2F88000D2F8800050F00100C2F8BA
:100C70008000012004B070470FB4002004B070471A
:100C800080B524480068804701BD80B52148406890
:100C9000804701BD0080034080B51E4880688047C2
:100CA00001BD00006404FF1F0C90044004B0044028
:100CB0001090044008B00440149004400CB004406C
:100CC0001890044010B004401C90044010C0044030
:100CD0000090044014C004400490044018C0044034
:100CE000089004401CC00440009003402090044041
:100CF0003090044000A0044024900440349004400C
:100D000004A004402890044048A004402C900440D3
:100D10004CA00440F006FF1F103A07D330B4B1E8EE
:100D20003810103AA0E83810F9D230BC530724BF6D
:100D3000B1E80810A0E8081044BF51F8043B40F89F
:100D4000043BD20724BF31F8022B20F8022B44BF0A
:100D50000B7803707047083A07D3B1E80810083AD7
:100D600040F8043B40F804CBF7D25307E4E750F8CF
:100D7000041B61B150F8042BD30744BFA9F1010350
:100D80009A18002342F8043B091FFAD1EFE7704795
:100D90000FB42DE9F047089D099E9DF828709DF835
:100DA00029C0DDF82CE0DDF83080002E02D14FF4B0
:100DB00016594E46DFF8C4944D454AD15FF00009FC
:100DC0004C46DFF8BC94D9F800904A46DFF8B4945A
:100DD000D9F8009059F48069DFF8A8A4CAF8009007
:100DE000FFB2022F06D1DFF8A0944FF4007AC9F8C1
:100DF00000A00FE0FFB20E2F06D1DFF890944FF461
:100E0000407AC9F800A005E0DFF884944FF4407AF6
:100E1000C9F800A05FFA8CFCBCF1010F06D1DFF825
:100E200074944FF4007AC9F800A01EE15FFA8CFCBC
:100E3000BCF10F0F06D1DFF860944FF4407AC9F887
:100E400000A012E1DFF854944FF4407AC9F800A0F2
:100E50000BE1DFF84C944D4534D15FF001094C466D
:100E6000DFF81C94D9F800904A46DFF81894D9F8B6
:100E7000009059F40069DFF80CA4CAF80090FFB2A2
:100E80007C2F06D1DFF81C944FF4407AC9F800A0FB
:100E900005E0DFF814944FF4407AC9F800A05FFA37
:100EA0008CFCBCF17D0F06D1DFF800944FF4407A42
:100EB000C9F800A0D9E0DFF8F8934FF4407AC9F8F8
:100EC00000A0D2E0DFF8EC93D9F800904A46DFF8B2
:100ED000E8934D4519D15FF002094C46DFF8A49321
:100EE000D9F8009059F48059DFF898A3CAF8009017
:100EF000DFF8C8934FF4407AC9F800A0DFF8C09338
:100F00004FF4407AC9F800A0AFE0DFF8B8934D4540
:100F100045D15FF003094C46DFF86893D9F800909B
:100F200059F40059DFF85CA3CAF80090FFB2802F93
:100F300006D1DFF894934FF4407AC9F800A00FE08F
:100F4000FFB22B2F06D1DFF884934FF4407AC9F813
:100F500000A005E0DFF878934FF4407AC9F800A0CC
:100F60005FFA8CFCBCF1810F06D1DFF868934FF477
:100F7000407AC9F800A078E05FFA8CFCBCF12A0F37
:100F800006D1DFF854934FF4407AC9F800A06CE022
:100F9000DFF848934FF4407AC9F800A065E0DFF825
:100FA00040934D452FD15FF004094C46DFF8349350
:100FB000D9F8009059F48069DFF828A3CAF80090A6
:100FC000FFB2942F06D1DFF820934FF4407AC9F88E
:100FD00000A005E0DFF814934FF4407AC9F800A0B0
:100FE0005FFA8CFCBCF1950F06D1DFF804934FF447
:100FF000407AC9F800A038E0DFF8F8924FF4407A60
:10100000C9F800A031E05FF005094C46DFF8E8922E
:101010004D46DFF8D092D9F8009059F40069DFF816
:10102000C4A2CAF80090FFB2652F06D1DFF8CC92B7
:101030004FF4407AC9F800A005E0DFF8C4924FF4FD
:10104000407AC9F800A05FFA8CFCBCF1640F06D1AD
:10105000DFF8B0924FF4407AC9F800A005E0DFF85D
:10106000A8924FF4407AC9F800A095F8039019F0BF
:10107000F30985F803905FF0000985F802905FEAB4
:101080000619B2FBF9F9484695F8009019F0E00905
:101090004B4680B25FEA102919F01F0959EA03098B
:1010A00085F8009068705FEA42195FEA061AB9FB9A
:1010B000FAF980B2B9EB4019494695F80A9019F04F
:1010C000E0094B4611F01F0959EA030985F80A9017
:1010D0009DF82A90B9F1010F0FD1F146B9F1000F37
:1010E0000BD095F8039059F0200985F80390E4B2ED
:1010F000DFF8189249F824E005E095F8039019F01C
:10110000DF0985F803909DF82B90B9F1010F0FD1FD
:10111000C146B9F1000F0BD095F8039059F0800942
:1011200085F80390E4B2DFF8E89149F8248005E0FF
:1011300095F8039019F07F0985F8039095F80390CE
:1011400059F00C0985F80390BDE8F0075DF814FB31
:1011500002791206FCD5C171704780B56D480078E0
:10116000800606D56C480078800602D5674800687E
:10117000804768480078000606D567480078000672
:1011800002D563480068804701BD80B56348007898
:10119000800606D562480078800602D55B48406824
:1011A00080475E480078000606D55D480078000656
:1011B00002D557484068804701BD80B5594800783E
:1011C000800606D558480078800602D54F488068CA
:1011D000804754480078000606D55348007800063A
:1011E00002D54B488068804701BD80B54F480078E4
:1011F000800606D54E480078800602D54348C06870
:1012000080474A480078000606D54948007800061D
:1012100002D53F48C068804701BD80B54548007889
:10122000800606D544480078800602D53748006914
:10123000804740480078000606D53F480078000601
:1012400002D533480069804701BD80B53B4800782E
:10125000800606D53A480078800602D52B484069BA
:10126000804736480078000606D5354800780006E5
:1012700002D527484069804701BD000000A0064014
:101280006004FF1F348004400890044038900440FC
:1012900044A00440049004403C90044040A004401A
:1012A00000B0064000D0044010B0044004D0044018
:1012B0000CB004406404FF1F00C006400CC0044092
:1012C00008C0044000D0064010D004402CA00440C8
:1012D00044B0044014D0044028A0044040B004406E
:1012E00000A00E402880044060D004403CB0044080
:1012F00064D0044038B0044000B00E4024C0044024
:1013000020D0044020C0044024D004409407FF1F94
:10131000AC07FF1F04A0064003A0064004B006402F
:1013200003B0064004C0064003C0064004D0064097
:1013300003D0064004A00E4003A00E4004B00E40AF
:1013400003B00E4070B504000D001600306801288F
:1013500002D0022805D00AE0200040B27168884718
:1013600005E0B0680470B068401CB060FFE7286812
:10137000401C286070BD2DE9F04704005FF0000AB2
:101380005046A1465FF0000A89F800A019F1010952
:10139000002A1FD0D1F800A05546002D05D15FF0DE
:1013A000300A89F800A0401C38E0002D36D095FBAB
:1013B000F3FA564603FB165A5746002F02D5FF4351
:1013C000313700E03037350089F8007019F1010934
:1013D000401CEAE7D1F800A0D446BCF1000F05D1CB
:1013E0005FF0300A89F800A0401C17E0BCF1000F44
:1013F00014D0BCFBF3FAD64603FB1ECAD046B8F1A4
:101400000A0F02D218F1300801E018F13708F4464B
:1014100089F8008019F10109401CE7E7BDE8F08771
:101420002DE9F04104000D0016001F00A046A8455C
:1014300007DA3A0031003020FFF784FF18F1010885
:10144000F5E7BDE8F0812DE9F04104000D0016003C
:101450001F00A046A84507DA3A0031002020FFF718
:1014600071FF18F10108F5E7BDE8F0812DE9F24FB1
:1014700092B00400150000200090129883469BF95A
:1014800000000590002800F0F5810598252813D06C
:1014900005980A2805D0220000A90598FFF752FFF9
:1014A00009E0220000A90D20FFF74CFF220000A94F
:1014B0000A20FFF747FFDAE1002081460020039071
:1014C0000398002822D11BF1010B9BF90000202872
:1014D0000ED0232812D02B2807D02D2802D0302858
:1014E00009D00EE059F00109EAE759F00209E7E7EF
:1014F00059F00409E4E759F00809E1E759F0100947
:10150000DEE7BBF1010B01200390D9E70020824602
:10151000002003900398002813D11BF1010B9BF9C5
:10152000000005903038092806D80A20059900FBEC
:101530000A10B0F1300AEDE7BBF1010B0120039076
:10154000E8E71BF1010B9BF900002E2811D10020C8
:101550000390039800280ED11BF1010B9BF90000AA
:101560003038092800D8F4E7BBF1010B01200390C3
:10157000EFE7BBF1010B1BF1010B9BF900004C28BD
:1015800006D0682802D06C2801D002E003E002E017
:1015900001E0BBF1010B1BF1010B9BF90000059071
:1015A000582875D0622800F0D580632800F01F818C
:1015B000642813D0692811D06E2800F04C816F2860
:1015C00000F0BD80702800F0D080732800F01981F1
:1015D000752800F0D58078285AD043E12868069015
:1015E0002D1D0A23012206A909A8FFF7C4FE070042
:1015F00009A8381806000698002803D52D20029067
:101600007F1C0FE05FEA897003D52B2002907F1CBE
:1016100008E05FEA497003D5202002907F1C01E0BA
:1016200000200290002004905FEA097011D5029812
:10163000002804D0220000A90298FFF783FE0120B1
:101640000490230000AA51463800FFF7E9FE5746F0
:1016500012E05FEAC9700FD4230000AA5146380097
:10166000FFF7F1FE0298002804D0220000A902989A
:10167000FFF768FE012004900498002807D1029823
:10168000002804D0220000A90298FFF75BFE98E032
:10169000286801902D1D1023002201A909A8FFF739
:1016A0006AFE070009A838180600002004905FEAC7
:1016B000097016D55FEAC9600BD5220000A9302059
:1016C000FFF740FE220000A97820FFF73BFE012033
:1016D0000490230000AA51463800FFF7A1FE5746A8
:1016E0001BE05FEAC97018D45FEAC96000D5BF1C6F
:1016F000230000AA51463800FFF7A5FE5FEAC96043
:101700000BD5220000A93020FFF71CFE220000A903
:101710007820FFF717FE012004905FEAC9600DD51D
:10172000049800280AD1220000A93020FFF70AFE01
:10173000220000A97820FFF705FEBF1C41E02868C1
:1017400001902D1D0823002201A909A8FFF713FE0F
:1017500007001FE0286801902D1D0223002201A927
:1017600009A8FFF708FE070014E0286801902D1D66
:101770001023002201A909A8FFF7FDFD070009E0D9
:10178000286801902D1D0A23002201A909A8FFF74E
:10179000F2FD070009A8381806005FEA097007D5AE
:1017A000230000AA51463800FFF73AFE574608E0EA
:1017B0005FEAC97005D4230000AA51463800FFF73C
:1017C00042FE96F90000002807D0220000A996F9F1
:1017D0000000FFF7B7FD761EF3E75FEAC97005D595
:1017E000230000AA51463800FFF72DFE3FE095F98F
:1017F000000007902D1D220000A90798FFF7A2FD09
:1018000035E0286880462D1DB8F1000F22D04046F3
:1018100000F04AF807005FEAC97005D4230000AA67
:1018200051463800FFF70FFE98F90000002808D055
:10183000220000A998F90000FFF784FD18F10108C3
:10184000F2E75FEAC97005D5230000AA51463800C7
:10185000FFF7F9FD0BE0286808902D1D0898009906
:10186000016004E0220000A90598FFF76BFD1BF161
:10187000010B04E6009813B0BDE8F08F0EB47EB5FE
:101880000400012000900748019007A805002A00E5
:10189000210000A8FFF7EAFD060030007EBC5DF8DD
:1018A00010FB00000D43000001000A000023002A85
:1018B00001D1002008E01000421C90F9000000282F
:1018C00001D05B1CF7E718007047000080B5CD48D9
:1018D000CD490160CB4817210171CA4800214171EF
:1018E000C84846218171C7484721C171C5480021B8
:1018F000C160C44801210172C2480FC800F094F9C8
:10190000C248C34901600C2000F0FEFABF4948609C
:10191000BE4801210173BD4800214173BB4984B019
:1019200068461422FFF7F8F90FBC00F0B7FB1E2041
:1019300000F021F80A2000F0BBFCB64800F038F8AF
:101940000A2000F0B5FC482000F08BF80A2000F0D7
:10195000AFFC0121AF4800F08BF8582000F081F86F
:101960000A2000F0A5FC0221AA4800F081F8A9484D
:1019700000F09AF801BD10B50400A34800F003FA86
:10198000EE21A14800F02DFA01219F4800F012FA43
:101990002100C9B29C4800F024FA01219A4800F0C5
:1019A00009FA994800F0FDF9052000F096FC10BDF9
:1019B00038B50400002500200500EDB2062D09D23F
:1019C0002800C0B200F007F8EDB214EB45014880E2
:1019D0006D1CF2E731BD38B504000020ADF8000001
:1019E0000025E4B26000A230C0B2FFF7C4FF0221BC
:1019F00000A800F00BF89DF8000000029DF801100F
:101A000050FA81F00500280080B232BD38B50400DC
:101A10000D007D4800F0B7F9EF217B4800F0E1F9B7
:101A20000121794800F0C6F90121774800F0E0F97A
:101A3000EDB2012D0ED3744800F0D5F920700121CC
:101A4000714800F0B7F9704800F0CDF92070641CBF
:101A50006D1EEDE76C4800F0A4F9052000F03DFC98
:101A600031BD10B504002000C0B2FFF784FF10BDE7
:101A700038B504000D0000A8002101600020FFF728
:101A80007AFF032100A8FFF7C1FF9DF800009DF831
:101A90000110090251EA00409DF802100843EDB21E
:101AA00014EB8501086131BD2DE9F0430400A06904
:101AB00061894FF4807202FB1100E061E669F7175B
:101AC000A2890023A2FB060102FB071103FB0611FA
:101AD0005FF40002002300F019FC10F5FA602062A8
:101AE000A5885FF4803622890023E069C117A0FB36
:101AF000028900FB039901FB02995FEAD81848EAC2
:101B000049685FEAD919E6FB0589C4E90A8965884D
:101B10004FF40046E2880023E069C117A0FB028968
:101B200000FB039901FB02995FEA182848EA09685B
:101B30005FEA1929E6FB0589C4E90C89606900217F
:101B4000D4E90C23A2FB006702FB017703FB0077BB
:101B5000760D46EAC7267F0DD4E90A01301A77EBE5
:101B60000101C00BA063206A00F06AFC2A4900F062
:101B70007FFCE063A06B00F063FC274900F078FC79
:101B800020642648A16B401A00F05AFC244900F05A
:101B9000EDFC6064BDE8F08370B504000D00002624
:101BA00020480078002803D0022816D008D321E06E
:101BB0002800C0B2FFF755FF1A480121017019E053
:101BC00001212000FFF754FF55F01000C0B2FFF7CD
:101BD00048FF1448022101700CE002212000FFF7A9
:101BE00047FF2800C0B2FFF73CFF012006000D4868
:101BF00001210170F6B2012E02D12000FFF754FF3F
:101C000070BD0000EC07FF1F00700640FC07FF1FBF
:101C100080F00F407804FF1F0000C842D58B010000
:101C20007C611841B008FF1FFFB400999DF80420A3
:101C30009DF806309DF80740039D9DF80860002739
:101C4000F6B2012E01D120200700DFF87402814294
:101C500043D1DFF87002006850F04000DFF864C242
:101C6000CCF80000DBB2642B07D1FFB257F4007050
:101C7000DFF854C2CCF8000011E0DBB2202B07D112
:101C8000FFB257F40070DFF844C2CCF8000006E061
:101C9000FFB257F40070DFF838C2CCF80000E4B2AD
:101CA000652C07D1FFB257F40070DFF828C2CCF8DA
:101CB000000044E0E4B2212C07D1FFB257F40070D9
:101CC000DFF814C2CCF8000039E0FFB257F400701E
:101CD000DFF808C2CCF8000031E0814881422CD105
:101CE0007848006850F08000DFF8D8C1CCF80000D8
:101CF000DBB27D2B07D1FFB257F4C060DFF8E4C13F
:101D0000CCF8000006E0FFB257F40070DFF8D8C14D
:101D1000CCF80000E4B27C2C07D1FFB257F4C060CD
:101D2000DFF8C8C1CCF8000009E0FFB257F400703A
:101D3000DFF8BCC1CCF8000001E0002020E09DF8F5
:101D40000500012814D12800002811D0887850F00F
:101D5000400088705A48814202D16648056007E019
:101D60005748814202D16348456001E0002007E006
:101D700012F03F004870887850F080008870012091
:101D800004B0F0BC7047817851F010018170817807
:101D900051F0200181707047817851F00401817009
:101DA0007047817811F0DF018170817811F0EF01C7
:101DB00081707047C9B201290ED1C3789B0706D440
:101DC0004EF6612392B29A4201D2521CF5E7C378D3
:101DD00053F00203C37003E0837853F00803837069
:101DE00070470171704701000A791000C0B2704756
:101DF000C9B2012904D1827812F0EF02827003E0A7
:101E0000827852F010028270704780B53A480078AC
:101E1000800726D537480068804738480078000793
:101E200005D53648007850F008003449087033482A
:101E30000078800705D53148007850F002002F491E
:101E400008702D480078C00605D52B48007850F062
:101E50001000294908702848007850F002002649EF
:101E6000087001BD80B526480078800726D5214836
:101E70004068804723480078000705D5214800784E
:101E800050F008001F4908701E480078800705D5EB
:101E90001C48007850F002001A4908701848007871
:101EA000C00605D51648007850F010001449087097
:101EB0001348007850F002001149087001BD00007D
:101EC000006006403480044020C0044000A004406C
:101ED00008A0044024C0044004A004400CA0044016
:101EE0000070064004D0044028B0044000D00440F4
:101EF0002CB004401007FF1F036006400860064036
:101F000003700640087006400100C9B2202980F025
:101F1000AB80C9B200292FD0022933D02FD3042996
:101F200036D032D3062939D035D308293CD038D31E
:101F30000A2941D03CD30C2946D041D30E294BD09D
:101F400046D3102950D04BD3122955D050D3142941
:101F50005AD055D316295FD05AD3182964D05FD3ED
:101F60001A2969D064D31C296ED069D31E2973D075
:101F70006ED31F2974D077E00122100074E0022292
:101F8000100071E0042210006EE0082210006BE0E7
:101F90001022100068E02022100065E040221000AE
:101FA00062E0802210005FE04FF4807210005BE07E
:101FB0004FF40072100057E04FF48062100053E0BD
:101FC0004FF4006210004FE04FF4805210004BE0DD
:101FD0004FF40052100047E04FF48042100043E0FD
:101FE0004FF4004210003FE05FF4803210003BE00D
:101FF0005FF40032100037E05FF48022100033E01D
:102000005FF4002210002FE05FF4801210002BE03C
:102010005FF40012100027E05FF48002100023E05C
:102020005FF4000210001FE05FF0807210001BE000
:102030005FF00072100017E05FF08062100013E0A4
:102040005FF0006210000FE05FF0805210000BE0C4
:102050005FF00052100007E05FF08042100003E0E4
:102060005FF000421000FFE77047000010B440B27C
:1020700041097D4A012310F01F04A34042F821309A
:1020800010BC704710B440B24109784A012310F0E7
:102090001F04A34042F8213010BC70470FB4F0B5C4
:1020A000079850F48073059C069D9DF820609DF86C
:1020B0002170DDF824C06E48844204D16D480200CE
:1020C0000020010021E06C48844204D16B480200EA
:1020D0000120010019E06A48844204D169480200E5
:1020E0000220010011E06848844204D167480200E0
:1020F0000320010009E06648844204D165480200DB
:102100000420010001E0002027E0F6B2012E09D1F1
:10211000606928436061FFB2012F01D1656004E06E
:10212000A56002E06069A84360610020C0B2202879
:102130000BD25FF0010E1EFA00FE15EA0E0F02D060
:10214000C0B242F82030401CF0E76046002803D0BF
:10215000C9B2514840F821C00120F0BC5DF814FB21
:102160000FB438B5049D4248854202D100200400D6
:1021700013E04148854202D1012004000DE04048AF
:10218000854202D10220040007E03F48854202D187
:102190000320040001E00420040014F1570040B2C1
:1021A000FFF764FF012032BC5DF814FB0FB438B5B3
:1021B000049D2F48854202D10020040013E02E48E0
:1021C000854202D1012004000DE02D48854202D154
:1021D0000220040007E02C48854202D103200400BD
:1021E00001E00420040014F1570040B2FFF74AFF59
:1021F000012032BC5DF814FB01228A40C2607047A6
:102200000069C84010F00100704780B5224800689E
:10221000804722485FF0FF31016001BD80B51E4854
:10222000406880471E485FF0FF31016001BD80B506
:102230001948806880471B485FF0FF31016001BD8D
:1022400080B51548C068804717485FF0FF310160CE
:1022500001BD80B510480069804714485FF0FF3128
:10226000016001BD0000000000E100E080E100E04D
:1022700000F00F400090044040F00F4000A00440E8
:1022800080F00F4000B00440C0F00F4000C0044098
:1022900000F10F4000D00440FC06FF1FA090044056
:1022A000A0A00440A0B00440A0C00440A0D00440BE
:1022B00010B40023190081420DD2114B1B684FF45A
:1022C0007A74B3FBF4F31A00002A02D000BF521E46
:1022D000FAE7491CEFE710BC704710B4002319005F
:1022E00081420BD2074B1B68074CB3FBF4F31A0077
:1022F000002A01D0521EFBE7491CF1E710BC7047D1
:102300006404FF1F6004FF1F40420F0013F0004CE5
:1023100003D55B42524263F100039CEA210C00F0BA
:10232000178010B5644603D34942404261F1000171
:1023300000F00EF8640004D34942404261F100010C
:10234000244203D55B42524263F1000310BD0000FA
:102350001B4213D1094236D12AB18446B0FBF2F0B8
:1023600002FB10C2704700F06DB9FCD300220023BD
:1023700070470B000200002100207047904271EB73
:10238000030CF6D370B5B1FA81F4B3FA83F52C1BC4
:10239000A340C4F1200532FA05F63343A2405FF0B2
:1023A0000046E64002E05B085FEA3202841A71EB05
:1023B000030524BF204629467641F4D302000B00D2
:1023C0003000002170BD012ACFD970B5140C20D087
:1023D000B1FA81F4B2FA82F5C4F120046419B4F1BF
:1023E0002006D6D3B2405FF00044F440002502E05E
:1023F00052085FEA3303C61A71EB020E24BF30465F
:10240000714664416D41F3D302000B0020002900A6
:1024100070BD0C46B1FBF2F102FB11452D0445EAFB
:102420001045B5FBF2F402FB145580B240EA0545B5
:10243000B5FBF2F002FB105240EA044070BD000010
:10244000002840F10780F446404200F003F850F0C5
:10245000004060470AD0B0FA80F18840D1F19D0178
:10246000C905020672F1004241EB102070470000DE
:1024700010B5FF2313EAD0541DBF13EAD1529C427A
:102480009A4239E0A41ADA0780EA0103134042EACB
:10249000012142EA0020421A3CBF641E01EB4202C5
:1024A000090AB2FBF1FE01FB1E221202B2FBF1F09F
:1024B00001FB10226EF30F201202B2FBF1FE4EEA76
:1024C00000207F3406DDFE2C24DA53EA500050EB66
:1024D000C45010BDD4F1020401FB1E2240F08071F3
:1024E000192C1DDC21FA04F0C4F12004A140114391
:1024F00071F10042584110BD9C421ABF03EAD1520B
:102500009A420FE080EA010E0EF00043400004D032
:10251000490016D143F0FF4010BD490008BFD34326
:10252000180010BD9C4205D1D21AF7D001F000412D
:10253000484010BD4A0212BF0846484000F0004023
:1025400010BD4AB90902B1FA81F2914044B1A41810
:10255000C00140F000409EE7C90141F000415242F5
:102560000002B0FA80F4A040141B94E7FF2212EAA4
:10257000D05C1DBF12EAD153944593422BE09C449A
:10258000D30780EA01021A4043EA002043EA01210E
:10259000A1FB0030410038BF40007CF17F010BDB24
:1025A000FE294ADA5B0842EAC15153EA006373F13B
:1025B000004C51EB10207047D1F1080CDCF12001E8
:1025C0002FDB5B0810FA01F10B4373F1004120FA95
:1025D0000CF05041704794451CBF02EAD15393421E
:1025E00080EA010202F000421DD0400019D04900EB
:1025F00017D05BB9634514D00902B1FA81F3994051
:10260000BCEB030CC00140F00040C1E70002B0FA8F
:1026100080FC10FA0CF0B3EB0C0CC90141F0004146
:10262000B6E71000704740000AD0490008D010F10A
:10263000807F94BF11F1807F02E042F0FF4070473D
:10264000D04370477047000080B5DFF80402DFF820
:10265000041201600A20FFF757FCDFF8F41148600C
:10266000DFF8EC0101210173DFF8E401012141737E
:10267000DFF8DC1184B068461422FEF74DFB0FBC76
:10268000FFF70CFDDFF8C801DFF8C81101600B206F
:10269000FFF73AFCDFF8B8114860DFF8B401012118
:1026A0000173DFF8AC0101214173DFF8A41184B09C
:1026B00068461422FEF730FB0FBCFFF7EFFC6448BE
:1026C000654901600820FFF71FFC614948606048C8
:1026D000012101735E48012141735D4984B0684660
:1026E0001422FEF719FB0FBCFFF7D8FC58485A49D3
:1026F00001600920FFF708FC554948605448012152
:102700000173534801214173514984B06846142232
:10271000FEF702FB0FBCFFF7C1FC4D484F490160BB
:102720000320FFF7F1FB4A49486049480121017342
:10273000474801214173464984B068461422FEF798
:10274000EBFA0FBCFFF7AAFC4148444901600420A2
:10275000FFF7DAFB3E4948603D48012101733C48E0
:10276000012141733A4984B068461422FEF7D4FA35
:102770000FBCFFF793FC3648384901600520FFF78E
:10278000C3FB3349486032480121017330480121BD
:1027900041732F4984B068461422FEF7BDFA0FBC7E
:1027A000FFF77CFC2A482D4901600620FFF7ACFBAF
:1027B00027494860264801210173254801214173BA
:1027C000234984B068461422FEF7A6FA0FBCFFF72F
:1027D00065FC01BD10B50400002C37D4082C35DA97
:1027E000002C0BD0022C13D00DD3042C1AD014D3F0
:1027F000062C21D01BD3072C23D027E00A21154813
:10280000FFF7FAFC22E00B211248FFF7F5FC1DE070
:1028100008211148FFF7F0FC18E009210E48FFF7E6
:10282000EBFC13E003210D48FFF7E6FC0EE004216A
:102830000A48FFF7E1FC09E005210848FFF7DCFC46
:1028400004E006210548FFF7D7FCFFE710BD0000B4
:102850005808FF1F40F00F4080F00F40C0F00F40BD
:1028600038B50400002500200500082D08DAE0072F
:1028700002D52800FFF7AEFFE4B264086D1CF4E750
:1028800031BD00002DE9F04704000D0016001F00C7
:10289000DDF82080DDF824905FF0000A2000FFF7CB
:1028A00072FA6900C9B22000FFF79BFA01212000EB
:1028B000FFF780FA3100C9B22000FFF792FA012138
:1028C0002000FFF777FA00208246FFB2BA450BDA04
:1028D0001AF808102000FFF784FA01212000FFF702
:1028E00069FA1AF1010AF0E72000FFF75AFA4846A0
:1028F000FFF7F3FCBDE8F0872DE9F04104000D007F
:1029000016001F00DDF818802000FFF73CFA690070
:10291000C9B22000FFF765FA01212000FFF74AFA4B
:102920003100C9B22000FFF75CFA01212000FFF757
:1029300041FA3900C9B22000FFF753FA0121200003
:10294000FFF738FA2000FFF72CFA4046FFF7C5FCE6
:10295000BDE8F0812DE9F04704000D0016001F00CE
:10296000DDF82080DDF824905FF0000A2000FFF7FA
:102970000AFA6900C9B22000FFF733FA01212000EA
:10298000FFF718FA1AEB0601C9B22000FFF729FA7F
:1029900001212000FFF70EFA2000FFF7FDF9EDB24C
:1029A0006800411CC9B22000FFF71BFA012120007A
:1029B000FFF700FA01212000FFF71AFA00208246F3
:1029C000FFB2BA4521DAFFB2781E824504DAA07858
:1029D00010F0F700A07003E0A07850F00800A0709D
:1029E000BAF1000F03D12000FFF7FDF906E0200047
:1029F000FFF7F9F988F8000018F10108012120001B
:102A0000FFF7D8F91AF1010ADAE72000FFF7C9F950
:102A10002000FFF7E8F988F800004846FFF75DFC62
:102A2000BDE8F0872DE9F04104000D0016001F00FD
:102A30002000FFF7A8F96900C9B22000FFF7D1F91B
:102A400001212000FFF7B6F93100C9B22000FFF7DD
:102A5000C8F901212000FFF7ADF92000FFF79CF92C
:102A6000680050F00101C9B22000FFF7BAF9012156
:102A70002000FFF79FF901212000FFF7B9F900219D
:102A80002000FFF797F92000FFF7ADF980460121FC
:102A90002000FFF78FF92000FFF783F92000FFF7F0
:102AA000A2F980463800FFF718FC4046C0B2BDE8E6
:102AB000F081000080B57A4801210170784800213A
:102AC000C16077483B21816075484FF47571416062
:102AD00073480FF2A5010161714984B06846142260
:102AE000FEF71AF90FBC00F005F96D4984B068468D
:102AF0001422FEF711F90FBC00F048F969486A4941
:102B000001600020FFF700FA66494860654800212F
:102B1000017364485FF43021816062480FF2111143
:102B20000161604984B068461422FEF7F5F80FBCD5
:102B3000FFF7B4FA5B4984B068461422FEF7ECF85C
:102B40000FBCFFF70DFB5948594901601720FFF7EB
:102B5000DBF956494860554801210173534800216B
:102B60004173524984B068461422FEF7D5F80FBC71
:102B7000FFF794FA01BD000080B54E4800780028A8
:102B80002AD147480021C16045480021816044485E
:102B900014214160424984B068461422FEF7BCF813
:102BA0000FBC00F0A7F83E4984B068461422FEF737
:102BB000B3F80FBC00F0EAF83F48012101603D483E
:102BC00001210170374984B068461422FEF7A4F849
:102BD0000FBCFFF7EBFA2AE031480021C160304812
:102BE0003B2181602E484FF4757141602C4984B0BF
:102BF00068461422FEF790F80FBC00F07BF82849D5
:102C000084B068461422FEF787F80FBC00F0BEF8C7
:102C1000294800210160274800210170214984B022
:102C200068461422FEF778F80FBCFFF799FA01BD49
:102C300070B500240025214806680020FFF764F9DC
:102C400006422BD01E480068012804D11D481E49A9
:102C50000968016022E01C48006804001948006807
:102C6000A04208D200200500184800210180184821
:102C70000121017012E013480068041B1548006828
:102C80001549B0FBF1F0B4FBF0F005003A20B5FBBC
:102C9000F0F00E4908800E480021017070BD000060
:102CA000C004FF1FD404FF1F80F00F40E804FF1F83
:102CB00040F00F40AF08FF1F5C08FE43A0B0044087
:102CC0000012FE43FC04FF1F14710340AC08FF1FF9
:102CD000AE08FF1F6404FF1F40420F0010B440B253
:102CE0004109464A012310F01F04A34042F8213055
:102CF00010BC70470FB430B4039841490968414A89
:102D0000B1FBF2F1049A3E4B1B683E4CB3FBF4F36B
:102D10005A434FF47A735A4301FB00200599384A0D
:102D20001268384BB2FBF3F25143364A02FB010101
:102D30009DF80820069B3448006850F40000324C8F
:102D400020603248002404601800002809D0D2B264
:102D50002F4840F82230D2B22E4810EB0210022445
:102D60008460D2B210012B4C4D1E0551D2B22948BD
:102D700010EB0210806850F00100D2B2254C14EB29
:102D80000214A060012030BC04B070470FB410B52D
:102D90009DF8084014F1440040B2FFF79FFF10BCBB
:102DA0005DF814FB80B51A48006880471A4800682F
:102DB00050F001001849086001BD80B51448406812
:102DC00080471648006850F001001449086001BDB2
:102DD00080B50F48806880471148006850F00100B6
:102DE0000F49086001BD80B50948C06880470D489B
:102DF000006850F001000B49086001BD00E100E0EF
:102E00006404FF1F40420F003C80044000700340F8
:102E10002407FF1F007103400C7103401C71034025
:102E20002C7103403C71034080B582480068002843
:102E300009D57D48006880477E48006850F0004012
:102E40007C49086044E07B480068C00009D57648AA
:102E5000406880477748006850F0805075490860A6
:102E600036E074480068000109D56F4880688047E3
:102E70007048006850F000606E49086028E06D48B6
:102E80000068800109D56848006980476948006882
:102E900050F00070674908601AE066480068000357
:102EA00009D56148C06880476248006850F4002036
:102EB000604908600CE05F480068800308D55A4804
:102EC000406980475B48006850F400305949086009
:102ED00001BD80B558480068002809D553480068EE
:102EE00080475548006850F000405349086044E06E
:102EF00051480068C00009D54C48406880474E489A
:102F0000006850F080504C49086036E04A4800683C
:102F1000000109D54548806880474748006850F05F
:102F200000604549086028E043480068800109D5F1
:102F30003E48006980474048006850F000703E49B4
:102F400008601AE03C480068000309D53748C068AB
:102F500080473948006850F40020374908600CE089
:102F600035480068800308D53048406980473248BA
:102F7000006850F400303049086001BD80B52F482A
:102F80000068002809D52A48006880472B48006857
:102F900050F000402949086044E028480068C0001B
:102FA00009D52348406880472448006850F0805085
:102FB0002249086036E021480068000109D51C4814
:102FC000806880471D48006850F000601B49086019
:102FD00028E01A480068800109D515480069804733
:102FE0001648006850F00070144908601AE0134851
:102FF0000068000309D50E48C06880470F48006884
:1030000050F400200D4908600CE00C480068800373
:1030100008D50748406980470848006850F40030E8
:103020000649086001BD00004007FF1F5807FF1F49
:103030007007FF1F2CC002402CD002402CC00A4059
:1030400080B55D485D4901605B48002141715A4887
:103050001721017158482221817157482321C171DC
:1030600055480021C16054480121017252480FC8DF
:10307000FEF7DAFD52485349016051485FF40011F0
:1030800041604F48012101734D48002141734C4973
:1030900084B068461422FDF73FFE0FBCFEF7FEFF2A
:1030A0000A20FFF705F900F058F800F08DF801BD8F
:1030B000F8B5040000252000C0B200F01CF806009E
:1030C000601CC0B200F017F80700F6B2300250FAE8
:1030D00087F00500280000B2F2BD38B504000D00ED
:1030E000022000902B00DBB22200D2B268213348CC
:1030F000FFF702FC31BD10B5040002232200D2B25A
:1031000068212E48FFF78EFC10BDF0B583B0040097
:103110000D0016001F000220019000973300DBB263
:103120002A00D2B22100C9B22448FFF7ABFB00202D
:10313000FEBDF0B583B004000D0016001F00022094
:10314000019000973300DBB22A00D2B22100C9B24D
:103150001A48FFF7FFFB0020FEBD80B500216B2061
:10316000FFF7BBFF07211920FFF7B7FF06211A2041
:10317000FFF7B3FF18211B20FFF7AFFF01211C2031
:10318000FFF7ABFF01BD38B504000D000220009031
:103190002B00DBB22200D2B20C210848FFF7ACFBB7
:1031A00031BD10B5040002232200D2B20C21034825
:1031B000FFF738FC10BD0000C807FF1F0060064085
:1031C000D807FF1F40F00F4080B502213720FFF7DE
:1031D00084FF01210A20FFF7D6FF01BDF8B50400E6
:1031E00000252000C0B2FFF7DCFF0700601CC0B262
:1031F000FFF7D7FF0600F6B2300250FA87F000B2B0
:103200000500280000B2F2BD80B501210A20FFF7B9
:10321000BAFF01BD38B5002400250220FFF7C1FF29
:10322000012805D0641CB4F5FA6FF6DD0120050015
:10323000002005002800C0B232BD000010B4C9B2A1
:10324000202905D2026B01238B401A43026306E05A
:10325000C26A0123B1F12004A3401A43C26210BC28
:10326000704710B40200C9B2202905D2136BCB40BD
:1032700013F00103180006E0D36AB1F12004E34023
:1032800013F001031800C0B210BC704738B5040039
:103290000D002900C9B22000FFF7E3FF002821D06C
:1032A0002900C9B22000FFF7C9FF594884420BD159
:1032B000EDB2594850F82500002813D0EDB2564819
:1032C00050F8250080470DE0524884420AD1EDB203
:1032D000524850F82500002804D0EDB24F4850F86D
:1032E0002500804731BD38B504000D002900C9B262
:1032F0002000FFF7B6FF012823D1454884420BD1B7
:10330000EDB2454850F82500002815D0EDB24248EE
:1033100050F8250080470FE03E4884420BD1EDB2C3
:103320003E4850F82500002806D0EDB23B4850F842
:103330002500804700E004E02900C9B22000FFF723
:103340007DFF31BD10B500200400E4B2102C26D260
:10335000E4B220013249405800281ED0E4B230487F
:1033600010EB0410007A022808D12100C9B2E4B29F
:1033700020012B4A8058FFF789FF0EE0E4B228486D
:1033800010EB0410007A012807D12100C9B2E4B281
:103390002001234A8058FFF7A6FF641CD5E710BD23
:1033A00080B5FFF7CFFF01BD1E48042101607047C3
:1033B0001C4909680800810701D51A49086070474F
:1033C00018485FF400310160704716485FF480319F
:1033D0000160704770477047704780B5FFF7B2FFD4
:1033E00001BD11480421016070470F4909680800B8
:1033F000810701D50C49086070470B485FF4003124
:103400000160704708485FF4803101607047000038
:103410000040024000400A400806FF1F4806FF1F08
:103420000805FF1F2040024020400A4070477047B7
:1034300070470000DFF800F01104FF1F2DE9F84F7E
:1034400083465FFA8BFBBBF1C90F02D35FF0C80B59
:10345000FFE75FFA8BFB584630280ED0322811D098
:10346000602814D0642817D078281AD096281DD048
:10347000B42820D0C82823D027E018200500002039
:10348000060026E0182005000120060021E0182093
:103490000500182006001CE0182005001A20060070
:1034A00017E0132005001820060012E00F20050089
:1034B000182006000DE00E2005001E20060008E082
:1034C0000C2005001C20060003E06020FFF7B6FF7B
:1034D0009BE05C46002007005FFA8BFB3220BBFBC1
:1034E000F0F0401E8046C0B2FF2802D10020804686
:1034F0000BE05FFA8BFB5FFA88F818F101009BFB89
:10350000F0F0332801D318F101085FFA8BFB322069
:10351000BBFBF0F0401E8146C0B2FF2802D1002064
:1035200081460BE05FFA8BFB5FFA89F919F1010024
:103530009BFBF0F0332801D319F101095FFA8BFBF3
:103540001920BBFBF0F0401E8246C0B2FF2802D11A
:10355000002082460BE05FFA8BFB5FFA8AFA1AF1D1
:1035600001009BFBF0F01A2801D31AF1010A284848
:10357000002101702748006850F0805025490860FC
:103580002548007850F0800023490870234898218E
:10359000017023480078C006FBD421480078C0F3AE
:1035A0008100C0B20228F8D115F01F001D49087033
:1035B0001D48002101705FFA8AFA53465FFA89F9C3
:1035C0004A465FFA88F84146FFB23800FFF732FFFB
:1035D00016F01F0050F040001349087010480078A2
:1035E0008006FBD50E4800784006FBD50B480078D6
:1035F00010F03F000949087009480078C0F38100C5
:10360000C0B20328F8D12000C0B2BDE8F28F00BFDD
:10361000014006403480044008C007400040064096
:1036200006400640044006400540064080B5794803
:10363000794901601C20FEF767FC764948607548AF
:1036400000210173734984B068461422FDF764FBBE
:103650000FBCFEF723FD6F486F4901601B20FEF78A
:1036600053FC6C4948606B4800210173694984B080
:1036700068461422FDF750FB0FBCFEF70FFD6548AE
:10368000654901601A20FEF73FFC624948606148C5
:10369000002101735F4984B068461422FDF73CFBAA
:1036A0000FBCFEF7FBFC5B485B4901601920FEF78D
:1036B0002BFC58494860574800210173554984B094
:1036C00068461422FDF728FB0FBCFEF7E7FC5148C3
:1036D000514901601820FEF717FC4E4948604D48DB
:1036E000002101734B4984B068461422FDF714FB96
:1036F0000FBCFEF7D3FC4748474901600C20FEF79A
:1037000003FC44494860434800210173414984B0A7
:1037100068461422FDF700FB0FBCFEF7BFFC3D48D6
:103720003D4901600B20FEF7EFFB3A4948603948FC
:1037300000210173374984B068461422FDF7ECFA82
:103740000FBCFEF7ABFC3348334901600A20FEF79B
:10375000DBFB304948602F48002101732D4984B0BC
:1037600068461422FDF7D8FA0FBCFEF797FC01BD9E
:10377000F8B5040000250026002700200500082DCC
:1037800045DAE00741D5002D0BD0022D15D00ED320
:10379000042D1ED017D3062D27D020D3072D2AD0D5
:1037A0002FE01C211C48FEF72BFD070029E01B2100
:1037B0001948FEF725FD070023E01A211648FEF7F9
:1037C0001FFD07001DE019211348FEF719FD070032
:1037D00017E018211048FEF713FD070011E00C2137
:1037E0000D48FEF70DFD07000BE00B210A48FEF720
:1037F00007FD070005E00A210748FEF701FD070065
:10380000FFE7FFB217FA05F006436D1CB7E730007B
:10381000C0B2F2BD6C08FF1F00F10F4082B000245F
:10382000002501A85A490A68026000A80021016029
:1038300072B600F0B5F8FEF707FF00F0CDF800F023
:1038400071F9FFF7F3FEFFF7FBFBFFF733F900F029
:10385000A1F9FEF73BF862B601AB042263216820B0
:10386000FFF753FC332C0CD3FF20FFF781FFC0B2CE
:10387000FEF7F6FF002004006D1C052D01DB002083
:10388000050048214348FEF787F9FFF7BDFC3B20C0
:10389000FFF70EFC00B201003BA0FDF7EFFF3D205B
:1038A000FFF706FC00B2010037A0FDF7E7FF3F205D
:1038B000FFF7FEFB00B2010033A0FDF7DFFF43205E
:1038C000FFF7F6FB00B201002FA0FDF7D7FF452060
:1038D000FFF7EEFB00B201002BA0FDF7CFFF472062
:1038E000FFF7E6FB00B2010027A0FDF7C7FFFFF7D7
:1038F00091FC0320FFF772FC00B2010022A0FDF74B
:10390000BDFF0520FFF76AFC00B201001EA0FDF715
:10391000B5FF0720FFF762FC010009B21AA0FDF70E
:10392000ADFF00AB042263216820FFF702FC9DF885
:10393000001015A0FDF7A2FF9DF8011012A0FDF7E1
:103940009DFF9DF8021010A0FDF798FF9DF8031051
:103950000DA0FDF793FF0F48816B0BA0FDF78EFFC5
:1039600001210D4800F044F980B2010006A0FDF7E6
:1039700085FF0A48016804A0FDF780FF03A0FDF75A
:103980007DFF641C6EE700BF256409000A0D00007E
:10399000604300007804FF1F00B003408008FF1F51
:1039A00080B50B480B49016009484FF4165141603E
:1039B00007487D21417206487C210172044984B088
:1039C00068461422FDF7A8F90FBCFDF7E1F901BD27
:1039D0009808FF1F00B0064080B54B484B49016076
:1039E0000920FEF791FA48494860474801210173D0
:1039F000454800214173444984B068461422FDF7CC
:103A00008BF90FBCFEF74AFB00F001F801BD80B551
:103A10003F48022101703E480021C1603C483221EC
:103A200081603B480021416039480FF24901016142
:103A3000374984B068461422FDF76EF90FBCFFF7D2
:103A400059F9334984B068461422FDF765F90FBC73
:103A5000FFF79CF901BD80B5012000F006F801BD1B
:103A600080B5002000F001F801BD2A49C0B208600D
:103A70007047000038B50024002528480068401C25
:103A80002649086026480078002806D002280ED073
:103A900008D3042815D00FD318E00020040001201B
:103AA000050017E0012004000020050012E00220BC
:103AB0000400022005000DE003200400032005009F
:103AC00008E0052004000520050003E000200400B4
:103AD0000120050024B211480068844202D3FFF798
:103AE000BAFF10E02DB205FA84F00C49096888424B
:103AF00002D3FFF7B5FF06E00948074909780170CE
:103B000006480021016031BD2C08FF1F00F10F4065
:103B10004008FF1F2420FE43B108FF1F5408FF1F69
:103B2000B208FF1FE0B51948194901601748012183
:103B30000171164832218160144984B068461C2204
:103B4000FDF7EAF80FBCFCF76DFC282000903D2340
:103B5000002200210E48FCF7EFFC282000903E23B5
:103B6000002201210A48FCF7E7FC282000903F23AF
:103B7000002202210648FCF7DFFC282000904023A9
:103B8000002203210248FCF7D7FC07BD1008FF1FE5
:103B90000080034080B514480021017012480021C4
:103BA000C1601148012181600F48002141600E4829
:103BB0000FF2290101610C4984B068461422FDF717
:103BC000ABF80FBCFFF796F8074984B0684614229B
:103BD000FDF7A2F80FBCFFF7D9F801BD0348006854
:103BE000401C0249086070478408FF1F8008FF1FBF
:103BF000026832F04002026002685209520102601B
:103C00000268C9B211F01F031A430260026812066B
:103C1000FCD5006980B2704780B5054800688047D0
:103C200001BD80B502484068804701BD000000002A
:103C30000005FF1F80B55848006880475748006856
:103C400050F001005549086001BD80B552484068F8
:103C500080475248006850F002005049086001BD9A
:103C600080B54D48806880474C48006850F004009B
:103C70004A49086001BD80B54748C0688047474849
:103C8000006850F008004549086001BD80B5424811
:103C9000006980474148006850F010003F490860C3
:103CA00001BD80B53C48406980473C48006850F001
:103CB00020003A49086001BD80B5374880698047D7
:103CC0003648006850F040003449086001BD80B5B6
:103CD0003148C06980473148006850F080002F4962
:103CE000086001BD80B52C48006A80472B480068F9
:103CF00050F480702949086001BD80B52648406AAB
:103D000080472648006850F400702449086001BDCF
:103D100080B52148806A80472048006850F0010043
:103D20001E49086001BD80B51B48C06A80471B481A
:103D3000006850F400601949086001BD80B516485C
:103D4000006B80471548006850F4805013490860A4
:103D500001BD80B51048406B80471048006850F4A2
:103D600000500E49086001BD80B50B48806B80474C
:103D70000A48006850F480400849086001BD80B5D9
:103D80000548C06B80470548006850F4004003496F
:103D9000086001BD00000000A006FF1F2480004055
:103DA00000B587B03048006850F478502E4908605C
:103DB0002E484CF2205101802C484DF628110180EC
:103DC0002B484FF4E971018000F06AF86420FFF796
:103DD00035FB00F035F82748274909680160254878
:103DE000006826490968C1F30361491CB0FBF1F082
:103DF000234908601F48006820490968C1F303513E
:103E0000491CB0FBF1F01F4908601A4800681B49C3
:103E10000968C1F30341491CB0FBF1F01A4908607D
:103E20001A4801905FF4E130029001A984B068461D
:103E30001422FCF771FF0FBCFCF7AAFF07B000BD0E
:103E400013490978C9B211F01F011831114A5143C1
:103E5000080011490978C9B211F01F01491CB0FBD3
:103E6000F1F0054908607047388004400E20054095
:103E7000002005406004FF1F7004FF1F44800440C1
:103E80006404FF1F6C04FF1F6804FF1F00B006409E
:103E90000540064080F0FA02044006407047704733
:103EA000F0B5244E244FBE420CD000263000B0F5B1
:103EB000826F07D21F4E204F57F8207046F82070AF
:103EC000401CF4E71D4E1B4F37601D4E31001D4E48
:103ED00032001D4E33009E1A30000600701E002E68
:103EE00004D016780E70521C491CF6E7174E3400A9
:103EF000174E35002E1B30000600701E002E03D01A
:103F000000262670641CF7E7124E134FDFF84CC0F2
:103F1000BCEB070E70468646BEF10100BEF1000FF5
:103F200006D097F800E086F800E07F1C761CF2E7E8
:103F3000F0BD00BF0000FF1F0000000008ED00E022
:103F40006004FF1F20430000344300007804FF1F7B
:103F5000B308FF1F1004FF1F24420000744200003A
:103F600080B538480078C0070CD537480078C007BE
:103F700008D53148006880473248007810F0FE00CC
:103F8000304908702F48007880070CD52E480078FB
:103F9000800708D52948006880472A48007810F033
:103FA000FD00284908702748007840070CD52648AE
:103FB0000078400708D522480068804721480078EB
:103FC00010F0FB001F49087001BD80B51F48007844
:103FD000C0070CD51E480078C00708D516484068B1
:103FE00080471A48007810F0FE00184908701748FA
:103FF000007880070CD516480078800708D50F4850
:10400000406880471148007810F0FD000F490870A3
:104010000E48007840070CD50D480078400708D5B9
:104020000748406880470948007810F0FB000749BE
:10403000087001BD000000008806FF1F9006FF1FEA
:104040009806FF1F20C00C4021C00C4020D00C401F
:1040500021D00C4080B5DFF87800006850F0007087
:10406000DFF86C100860DFF864000068002803D0F7
:10407000DFF858000068804701BD80B5DFF85000C8
:10408000006850F00060DFF848100860DFF83C007E
:104090004068002803D0DFF834004068804701BD45
:1040A00080B5DFF828008068002803D0DFF81C0006
:1040B0008068804701BD80B5DFF81000C068002827
:1040C00003D0DFF80800C068804701BDE006FF1F8D
:1040D00004000C4080B51A48006840060CD518480A
:1040E0000068800608D517480068804714480068B3
:1040F00030F040001249086014480068C0070CD531
:104100000F480068800308D50F48006880470F48B3
:10411000006850F001000D4908600D4800688007F4
:104120000CD507480068800308D507480068804719
:104130000748006850F002000549086001BD000012
:10414000006003401C07FF1F2007FF1F146003408F
:104150003C60034080B51748006848F210010842EF
:1041600017D015480068002813D01348006880470E
:104170001048006850F480400E4908600D480068FF
:1041800050F400400B4908600C484FF6FF71016085
:104190000DE00A480068002809D007484068002858
:1041A00005D005484068804704480549016001BDC5
:1041B00000000000005004408C07FF1F0C5004401A
:1041C0000000FFFF80B516480068C00709D51348F6
:1041D000006880471248006850F0010010490860EC
:1041E0001AE00F480068800709D50C4840688047EE
:1041F0000B48006850F00200094908600CE00848CC
:104200000068400708D50548806880470448006872
:1042100050F004000249086001BD00003407FF1F90
:1042200014D00340F0B4114E366834000F4E366897
:1042300056F47F060D4F3E600E0616F0706656EA85
:104240000076170517F470073E431F0417F4702714
:104250003E43074F3E6000263500EDB29D4201D23D
:104260006D1CFAE7014E3460F0BC704700F001406D
:104270004480044010B5074979441831064C7C4409
:10428000163404E0081D0A68511888470146A14207
:10429000F8D110BD0800000014000000D3CAFFFFD1
:1042A0003C0400007804FF1F0000000080B50548B2
:1042B000006850F0800003490860034800688047A8
:1042C00001BD0000000004401807FF1F00F009F8BE
:1042D000002801D0FFF7CEFF0020FFF79FFA00F083
:1042E00002F80120704700F001B800000746384688
:1042F00000F002F8FBE70000C046C046024A110089
:104300001820ABBEFBE700BF2600020010B504007A
:10431000210049B20148FCF71BFF10BD00B0064068
:10432000FFFFFFFFFFFFFFFFFFFFFFFFFFFFFFFF9D
:1043300000E1F50580B502480068804701BD000036
:104340008807FF1F80B502480068804701BD000054
:10435000C407FF1FC046C046C046C046FFF7B6FFB1
:04436000010203044F
:04000005000043555F
:00000001FF
