:10000000081DFF1F110400002104000035BD000081
:100010002104000021040000210400000000000071
:1000200000000000000000000000000021040000AB
:100030002104000000000000210400007DC2000037
:10004000CDBA0000E3BA0000F9BA00000FBB00000F
:1000500025BB00003BBB000051BB000067BB00009C
:100060007DBB000093BB0000A9BB0000BFBB00002C
:10007000D5BB0000EBBB000001BC000017BC0000BA
:1000800021040000210400002104000021040000DC
:1000900021040000210400002104000021040000CC
:1000A00057A20000B1A20000AF9D0000599E0000C1
:1000B000039F000041B8000049B8000051B800009B
:1000C00061B800006BB8000075B8000077B8000098
:1000D00079B800007BB8000083B800008BB800003E
:1000E0009BB80000A5B80000CDB80000CFB8000054
:1000F000D1B80000F386000021040000238700002F
:1001000021040000538700002104000083870000C1
:1001100021040000B387000021040000E3870000F1
:1001200021040000296E0000336E0000210400004D
:100130002104000021040000F9760000037700008C
:100140001177000021040000EDC000000000000055
:10015000F97B00000F7C0000257C00003B7C000048
:10016000FDBF00008DC2000021040000C9BF0000D7
:10017000A3BF00007DBF0000DFBF0000210400001E
:1001800021040000F9BD000063BE00007DC0000036
:1001900021040000FDC10000210400008B7A000052
:1001A0009D7A0000AF7A0000C17A0000D37A000087
:1001B00021040000210400002104000021040000AB
:1001C000210400002104000021040000210400009B
:1001D000210400002104000021040000210400008B
:1001E00037BD000037BD000037BD000037BD00003F
:10041000014880470148004739BC0000250400001E
:100420000BF089BC86B0002400F058FE00F0DFF825
:1004300000F0E2FE00F04EFF00F0DAFF01F02CF8D1
:1004400001F0BAF8DFF8F00B00680428FAD3DFF8FF
:10045000E80B0021016001F04DFB00F04FFF00F0C0
:10046000D6FF01F053FB01F063F801F05FF800687C
:10047000DFF8C81B01F0E6FB050001F057F8406803
:10048000DFF8B81B01F0DEFB060001F04FF88068D2
:10049000DFF8A81B01F0D6FB0700DFF8A40B01680A
:1004A000012001F021FDDFF8980B4168022001F0E6
:1004B0001BFDDFF88C0B8168032001F015FDDFF8D0
:1004C000800BC168042001F00FFD01F09CF80028AA
:1004D0000ED100200400052CB4DA01F094F80028B5
:1004E00004D101F0BEF8C0B201F0E0F8641CF2E7FC
:1004F00001F01CF8804601F019F8814601F016F869
:100500008246C8200290DFF83C0B006CDFF82C1B01
:1005100001F098FB01F08CFD00B20190DFF8240B94
:10052000C06BDFF8181B01F08DFB01F081FD00B2FC
:100530000090DFF8100B406C01F07AFD03001BB255
:100540009B46D8F80800DFF8F41A01F07BFB01F0B5
:100550006FFD02005B4612B290469B46D9F804003C
:10056000DFF8D81A01F06EFB01F062FD01005B4676
:10057000424609B2884691469B46DAF80000DFF809
:10058000BC1A01F05FFB01F053FD5B464A46414651
:1005900000B201F092F8DFF8B40AB0F90400049058
:1005A000DFF8A80AB0F902000390DFF8A00AB0F95A
:1005B00000000290DFF8980AB0F90C000190DFF813
:1005C000900AB0F90A000090DFF8840AB0F9083008
:1005D000DFF87C0AB0F90420DFF8740AB0F90210E1
:1005E000DFF86C0AB0F9000001F021F92AE7C4B085
:1005F00000250027002401F03DFD01F0B9FD002891
:1006000003D1DFF8500A01214170DFF8480A407831
:1006100000281ED0042001F01FFE802001F00AFFF8
:10062000002806D07F2001F005FFC0B202F03EF89E
:10063000F3E7802001F0FEFE002806D17F2001F0C4
:10064000F9FEC0B202F032F8F3E7002001F004FE38
:1006500013E0042001F000FE802001F0EBFE0028F2
:1006600006D17F2001F0E6FEC0B202F01FF8F3E7EA
:10067000002001F0F1FD01F0FDFC002002F016F871
:1006800001F0F8FCDFF8CC090021417001F064FDB5
:10069000002804D1DFF8BC090121817003E0DFF8F4
:1006A000B4090021817002F01DF9002803D1DFF8A0
:1006B000A40901210170DFF89C09007800281DD0F1
:1006C000DFF89009007A002818D04F2001F0EEFFE3
:1006D000042001F0C1FD402001F0ACFE0028FAD159
:1006E00002F0FEF9010084B068469D2202F092FA01
:1006F0000FBC02F0E4F9002001F0AEFDDFF8540970
:10070000407900283FD0DFF84C09807900283AD0A2
:10071000F32001F0CBFF042001F09EFD022001F048
:1007200089FE0028FAD1012001F084FE0028F5D1CD
:1007300000F062FD00200500032D15DA02F0D0F96B
:1007400010EB4500DFF8101931F81510A0F8011072
:1007500002F0C6F910EB4500DFF8001931F815106A
:10076000A0F813106D1CE7E702F0BAF9010084B09D
:1007700068469D2202F04EFA0FBC02F0A0F900205C
:1007800001F06AFD60E0DFF8CC08407900282BD04A
:10079000F22001F08BFF042001F05EFD022001F049
:1007A00049FE0028FAD100F046FD00200500032D87
:1007B0000BDA02F095F910EB4500DFF89C1831F8E0
:1007C0001510A0F801106D1CF1E702F089F9010085
:1007D00084B068469D2202F01DFA0FBC02F06FF94A
:1007E000002001F039FD2FE0DFF86808807900284B
:1007F0002AD0F12001F05AFF042001F02DFD012044
:1008000001F018FE0028FAD100F034FD00200500A8
:10081000032D0BDA02F064F910EB4500DFF83C1809
:1008200031F81510A0F813106D1CF1E702F058F91B
:10083000010084B068469D2202F0ECF90FBC02F082
:100840003EF9002001F008FDDFF80808C079002813
:1008500047D0F42001F02AFF042001F0FDFC042021
:1008600001F0E8FD0028FAD102F0AEFA042001F010
:10087000E1FD0028FAD0022001F0EEFC4FF4C87030
:1008800002F0F2FB042001F0D5FD0028FAD102F0BD
:10089000BBFA00200500042D15DA02F021F910EB57
:1008A0008500DFF8BC1751F82510C0F8371002F0AA
:1008B00017F910EB8500DFF8AC1751F82510C0F8D8
:1008C00047106D1CE7E702F00BF9010084B06846A1
:1008D0009D2202F09FF90FBC02F0F1F8002001F018
:1008E000BBFC02F0FDF8010084B068469D2202F0D6
:1008F00091F90FBC02F0F6F8002001F0D7FE80213C
:10090000DFF8640702F0DEFB8021DFF8600702F009
:10091000D9FB8021DFF8580702F0D4FB4021DFF833
:10092000480702F00DFD00F047FE00F0D3FCDFF8B1
:100930002407407A002801D000F05AFD00F0ACFDF9
:1009400001F064F902F024FEDFF8080700780028BF
:1009500002D0202001F098FEDFF8DC0600210160C3
:10096000DFF8F0060078002802D0202001F08CFE8D
:10097000DFF8C4060068042802D3402001F084FE9A
:10098000DFF8B4060068844203D2DFF8AC060068E2
:100990000400DFF8A40600680428FAD3DFF89806FC
:1009A000002101603E2F01DA7F1C04E0802001F06D
:1009B00087FF0020070001F09DF801F0A7F800F084
:1009C0009DFCDFF89006407A002801D000F01FFD62
:1009D00000F0AEFD03F0F4F903F019FA804603F0DD
:1009E00016FA98F9021090F9010003F012FA07A81C
:1009F00000F0D6FC00F09AFD804603F008FA81462C
:100A000003F005FA8246DFF86C06008803F0E2FA8C
:100A1000DFF8641603F0EEFA0190D8F80000DFF872
:100A20005C1603F0E7FA0090089B079A99F9021008
:100A30009AF9010003F0FAF900F078FD0068DFF898
:100A4000FC1501F0FFF8069000F070FD4068DFF83B
:100A5000EC1501F0F7F8059000F068FD8068DFF80C
:100A6000DC1501F0EFF80600DFF8E805C07A002891
:100A70005FD1DFF80C06006840F2DD5188421BD3DD
:100A8000DFF8FC05006841F29411884214D202207C
:100A900001F0E2FBDFF8BC05012101710022002119
:100AA000002003F0F9F8DFF8DC05006803F00DF929
:100AB000012003F017F9D7E0DFF8C405006841F220
:100AC000951188420CD3022001F0C6FBDFF88405A3
:100AD0000121017102F08FFF002180F83810C3E07E
:100AE000002001F0B9FBDFF86C0500210171DFF88F
:100AF00098050268DFF894050168DFF8940500683E
:100B000003F0CAF8DFF84C05007B002808D0DFF8B6
:100B10008405006803F0FAF8032003F0E3F8A3E08B
:100B2000DFF87005006803F0D0F8012003F0DAF870
:100B30009AE0002001F090FB02F0FCF90100DFF8E0
:100B40005805006801F07EF8804602F016FA0100B0
:100B5000DFF84805006801F075F8814602F030FAC8
:100B60000100DFF83C05006801F06CF8824602F0F5
:100B7000E1F9DFF8301503F0BBFA0BD202F0DAF935
:100B8000DFF8241503F0C6FA04D8DFF82005006862
:100B900080460CE0DFF814050068414603F0CCFA0B
:100BA000804600F0C3FC0068DFF80015086052467C
:100BB0004946404603F070F8DFF89804007B0028AF
:100BC00032D002F091F90100DFF8E404006801F08E
:100BD00039F8DFF8E014096803F08AFA06D2002039
:100BE00003F073F8012003F07DF82AE002F07CF9AD
:100BF000DFF8C014096803F0E1FA83465FF07E5025
:100C0000DFF8B014096803F0D9FA0100DFF8A00496
:100C1000006803F0EFF9594601F014F803F076F894
:100C2000032003F05FF80CE002F05EF90100DFF84A
:100C30008804006801F006F803F047F8012003F08B
:100C400051F802F0E0F9002803D1042003F04EF837
:100C50000AE0DFF868044168DFF86004006803F028
:100C60005FF8042003F04AF802F0CAFEDFF8F80348
:100C700002F073FA002871D002F0BDFE814602F046
:100C8000BAFE824602F0B7FE834602F0B4FE80460A
:100C9000D9F82C00DFF8281400F0D4FF01F0C8F9CF
:100CA0000190DAF82800DFF8181400F0CBFF01F00B
:100CB000BFF90090DBF82400DFF8041400F0C2FF55
:100CC00001F0B6F903009946D8F82000DFF8F013D8
:100CD00000F0B8FF01F0ACF902004B46DFF8E41376
:100CE00024A803F07BFD00F0E4FB814600F0E1FB6B
:100CF000824600F0DEFB834600F0DBFB8046D9F83D
:100D00000C00DFF8BC1300F09DFF01F091F9019099
:100D1000DAF80800DFF8A81300F094FF01F088F972
:100D20000090DBF80400DFF8981300F08BFF01F06F
:100D30007FF903009946D8F80000DFF8841300F02B
:100D400081FF01F075F902004B46DFF8781324A803
:100D500003F044FDB7A124A803F040FD00F053FCCC
:100D600000280ED100200500052D7ADA00F04BFC9A
:100D7000002804D100F075FCC0B200F097FC6D1C97
:100D8000F2E700F0D3FB804600F0D0FB814600F094
:100D9000CDFB8246C8200290AA48006CA74900F00B
:100DA00051FF01F045F900B20190A648C06BA3497C
:100DB00000F048FF01F03CF900B20090C248006822
:100DC0009E4900F03FFF01F033F903001BB29B4640
:100DD000D8F80800994900F035FF01F029F9020020
:100DE0005B4612B290469B46D9F80400934900F046
:100DF00029FF01F01DF901005B46424609B2884611
:100E000091469B46DAF800008C4900F01BFF01F088
:100E10000FF95B464A46414600B200F04EFC8B4853
:100E2000B0F9040004908948B0F9020003908748A3
:100E3000B0F9000002908648B0F90C000190844897
:100E4000B0F90A0000908248B0F908308048B0F943
:100E500004207F48B0F902107D48B0F9000000F08E
:100E6000E6FC0521804802F050FA0A21804802F091
:100E70004CFA05217D4802F048FA7D4802F06DF9F0
:100E800000283FF46DAD02A80021002200230EC00F
:100E90000C3802F0B0FD02A900910FC803F0BFFDAD
:100EA0000498874900F0CEFE01F0C2F80090039844
:100EB000834900F0C7FE01F0BBF803009846029892
:100EC0007F4900F0BFFE01F0B3F8020043467F49BE
:100ED00024A803F083FC24A9654802F002FA02F07A
:100EE0008CFD804602F089FD8146D8F82C006249CD
:100EF00000F0A8FE01F09CF803009846D9F82800FD
:100F00005D4900F09FFE01F093F8020043467049EE
:100F100024A803F063FC24A9554802F0E2F902F08A
:100F20006CFD804602F069FD8146D8F824006449D2
:100F300000F088FE01F07CF803009846D9F8200004
:100F40005F4900F07FFE01F073F8020043466049FC
:100F500024A803F043FC24A9454802F0C2F902F09A
:100F600056FF804602F053FF5A494968019159499A
:100F70000968009198F9023090F90120514924A89C
:100F800003F02CFC24A93A4802F0ABF94B48406826
:100F90004B4900F057FE01F04BF8030098464748D4
:100FA0000068474900F04EFE01F042F80200434657
:100FB000474924A803F012FC24A92D4802F091F916
:100FC000220021A124A803F009FC24A9284802F04A
:100FD00088F9414802681CA124A803F0FFFB24A95A
:100FE000234802F07EF92348028817A124A803F0C1
:100FF000F5FB24A91E4802F074F902F0FEFCC0685B
:101000002F4900F01FFE01F013F802000EA124A8E2
:1010100003F0E4FB24A9164802F063F905A124A813
:1010200003F0DCFB24A9124802F05BF90020040065
:1010300096E400000A0D0000EC0DFF1F00002041A7
:10104000F80DFF1F4005FF1F25640900B005FF1FB5
:10105000B408FF1FC80DFF1F8804FF1F9004FF1F67
:101060004404FF1F5404FF1F00B00E4000C00640A0
:1010700000A00E40F00EFF1F00007A44E12E6542F2
:10108000F00DFF1FF4C200000C0EFF1F100EFF1F1B
:10109000080EFF1F140EFF1FCCC20000D0C20000BC
:1010A000D4C20000CDCCCC3DCCCCCCBDB008FF1F11
:1010B000DCC20000E0C20000D8C20000A805FF1F8B
:1010C0000000C8425CC20000C808FF1F9CC20000AC
:1010D000C0C20000A005FF1FE00DFF1F80B572B663
:1010E00003F0A6FE03F0D0FE03F0EBFE04F0ACF834
:1010F00001F0F6F901F054F800F010FE01F002F9E9
:1011000004F012F904F022FA04F044FB04F0AAFB04
:1011100004F0E6FD00F09EFC04F0B4FF62B601BDF1
:1011200070B586B00024002503A80021002200230A
:101130000EC00C3800A80021002200230EC00C387D
:1011400000200400C82C36DA284800210160C82C91
:1011500014DA039E3B2004F025F906FA80F0039090
:10116000049E3D2004F01EF906FA80F00490059ECE
:101170003F2004F017F906FA80F00590C82C14DA25
:10118000009E432004F00EF906FA80F00090019EC4
:10119000452004F007F906FA80F00190029E4720EE
:1011A00004F000F906FA80F00290104800680A285E
:1011B000FBD3641CC6E700200500032D13DA03A847
:1011C00050F82500C82190FBF1F0094921F81500DD
:1011D00000A850F82500C82190FBF1F0054921F83E
:1011E00015006D1CE9E706B070BD0000E40DFF1F9F
:1011F0008804FF1F9004FF1F80B5022001F02CF827
:1012000040F6B83004F014FB012001F025F84FF44B
:101210007A7004F00DFB002001F01EF8FFF780FF4C
:10122000012001F019F84FF47A7004F001FB00205E
:1012300001F012F801BD80B5022001F00DF840F672
:10124000B83004F0F5FA012001F006F84FF47A7096
:1012500004F0EEFA002000F0FFFFFFF761FF01202D
:1012600000F0FAFF4FF47A7004F0E2FA002000F088
:10127000F3FF01BD80B5022000F0EEFF40F6B8306C
:1012800004F0D6FA012000F0E7FF4FF47A7004F082
:10129000CFFA002000F0E0FFFFF742FF012000F04E
:1012A000DBFF4FF47A7004F0C3FA002000F0D4FFA3
:1012B00001BD50F8041B61B150F8042BD30744BFA3
:1012C000A9F101039A18002342F8043B091FFAD13F
:1012D000EFE7704700200021080003280ADA3E49A2
:1012E000002221F810203C4911EB400100220A8124
:1012F000401CF2E738490022CA8070471FB500241D
:1013000000A804F066F800200400032C0FDA32482D
:1013100000A931F8141020F814102F4810EB4400E5
:1013200000A911EB440109890181641CEDE72A48F9
:10133000BDF80610C1801FBD30B504000025002097
:101340000500022D11DA244830F91500234931F93E
:101350001510401A02F034FE214951F8251000F012
:1013600071FC44F825006D1CEBE71E48407A00280C
:101370000BD0194830F91500363802F021FE184913
:10138000896800F05FFCA06009E0134830F915009F
:1013900002F016FE1249896800F054FCA06030BDCE
:1013A00030B50400002500200500032D13DA0A489B
:1013B00010EB4500B0F908000B4931F91510401A3F
:1013C00002F0FEFD094951F8251000F03BFC44F8FD
:1013D00025006D1CE9E730BDB408FF1F8804FF1F1E
:1013E0002C04FF1FC80DFF1F9004FF1F3804FF1FB0
:1013F00010B5002400200400032C05DA2248002147
:1014000020F81410641CF7E704F056F810BD1CB562
:101410001E480068401C1D4908601C4800680628DA
:1014200016D304F04FF8002400A804F073F800204D
:101430000400032C07DA144800A931F8141020F82E
:101440001410641CF5E704F037F81048002101601F
:1014500013BD30B50400002500200500032D11DA6E
:10146000094830F915000A4931F91510401A02F0FF
:10147000A7FD084951F8251000F0E4FB44F82500C9
:101480006D1CEBE730BD0000B005FF1FB805FF1F66
:10149000600CFF1F1004FF1F80B504F093FE04F0E2
:1014A00005FF04F037FF00F037F83F4803F0E3F999
:1014B00001BD3D48704710B50400200004F0A2FEB5
:1014C00010BD10B50400200004F0FCFE10BD10B5E6
:1014D0000400200004F02AFF10BD38B504F033FFEB
:1014E000040004F0DBFE050004F00DFF2F4900911D
:1014F00023002A0001002C4805F06AF831BD10B520
:1015000004F0CCFE040004F0FEFE284B2200010093
:10151000254804F01DFF10BD254800210160244826
:1015200000214160224800218160704720487047B7
:1015300000B58DB00AA8FFF7FFFE07A8FFF730FF40
:101540001C48407A002802D004A8FFF782FF0AA8AE
:10155000FFF7B1FF07A8FFF7B4FF1648407A00284D
:1015600006D0049890F00040049004A8FFF7AFFF65
:101570001048407A002802D0FFF7AFFF01E0FFF7E4
:10158000BEFFFFF796FF01A900910FC803F047FACD
:10159000074801990160064802994160044803998F
:1015A00081600DB000BD00000C0AFF1F6F12833B6D
:1015B0001C0AFF1FC80DFF1F002000210800802803
:1015C00005DADFF8881400224254401CF7E7DFF800
:1015D0007C140022A1F88020DFF870140022A1F80A
:1015E000822070470020DFF86414B1F88010DFF823
:1015F0005C24B2F88220891A080000B2002800D5C5
:10160000803000B2704780B5FFF7ECFF012801DBA6
:10161000002000E0012002BD10B50400FFF7E2FF4A
:101620007F281CDADFF82404B0F98000DFF81C14EE
:101630004454DFF81804B0F88000401CDFF80C14A4
:10164000A1F88000DFF80404B0F98000802804DBF2
:10165000DFF8F8030021A0F88010012000E000204E
:1016600010BD10B50024DFF8E403B0F98200DFF804
:10167000DC13405C0400FFF7B5FF012813DBDFF843
:10168000CC03B0F88200401CDFF8C013A1F8820040
:10169000DFF8B803B0F98200802804DBDFF8AC0380
:1016A0000021A0F882102000C0B210BD10B50400C7
:1016B000200040B203F031FC10BD2DE9F84F0400CA
:1016C0000D0016001F00BDF92880BDF92C905FF0B9
:1016D000B10AA520FFF7A0FF5A20FFF79DFF1020B9
:1016E000FFF79AFFA120FFF797FF24B2002C02D545
:1016F000DFF85C03041B24B2201283465846C0B2B4
:10170000FFF78AFF5AFA8BFA200083465846C0B288
:10171000FFF782FF5AFA8BFA2DB2002D02D5DFF8BF
:101720003003451B2DB2281283465846C0B2FFF73E
:1017300073FF5AFA8BFA280083465846C0B2FFF767
:101740006BFF5AFA8BFA36B2002E02D5DFF800038F
:10175000861B36B2301283465846C0B2FFF75CFF94
:101760005AFA8BFA300083465846C0B2FFF754FF4E
:101770005AFA8BFA3FB2002F02D5DFF8D402C71B0A
:101780003FB2381283465846C0B2FFF745FF5AFAB7
:101790008BFA380083465846C0B2FFF73DFF5AFA2D
:1017A0008BFA0FFA88F8B8F1000F03D5DFF8A00222
:1017B000B0EB08080FFA88F85FEA282083465846FD
:1017C000C0B2FFF729FF5AFA8BFA404683465846C3
:1017D000C0B2FFF721FF5AFA8BFA0FFA89F9B9F173
:1017E000000F03D5DFF86802B0EB09090FFA89F999
:1017F0005FEA292083465846C0B2FFF70DFF5AFA28
:101800008BFA484683465846C0B2FFF705FF5AFA9E
:101810008BFA4FF48071BAFBF1F000FB11A0C0B25B
:10182000FFF7FAFEAA20FFF7F7FEBDE8F18F2DE9DA
:10183000F74F1C00BDF93050BDF93460BDF9387068
:10184000BDF93C80BDF940905FF0B80BA520FFF7D3
:10185000E3FE5A20FFF7E0FE1620FFF7DDFEA22090
:10186000FFF7DAFEBDF90000002805D57848BDF87D
:101870000010401AADF80000BDF9000000128246C9
:101880005046C0B2FFF7C8FE5BFA8AFBBDF8000005
:1018900082465046C0B2FFF7BFFE5BFA8AFBBDF935
:1018A0000400002805D56A48BDF80410401AADF8B8
:1018B0000400BDF90400001282465046C0B2FFF792
:1018C000ABFE5BFA8AFBBDF8040082465046C0B20C
:1018D000FFF7A2FE5BFA8AFBBDF90800002805D5D8
:1018E0005B48BDF80810401AADF80800BDF90800C3
:1018F000001282465046C0B2FFF78EFE5BFA8AFBAA
:10190000BDF8080082465046C0B2FFF785FE5BFA7C
:101910008AFB24B2002C01D54D48041B24B22012AE
:1019200082465046C0B2FFF777FE5BFA8AFB200082
:1019300082465046C0B2FFF76FFE5BFA8AFB2DB2BB
:10194000002D01D54248451B2DB228128246504633
:10195000C0B2FFF761FE5BFA8AFB28008246504660
:10196000C0B2FFF759FE5BFA8AFB36B2002E01D5F2
:101970003748861B36B2301282465046C0B2FFF757
:101980004BFE5BFA8AFB300082465046C0B2FFF73E
:1019900043FE5BFA8AFB3FB2002F01D52C48C71BE0
:1019A0003FB2381282465046C0B2FFF735FE5BFAAE
:1019B0008AFB380082465046C0B2FFF72DFE5BFA24
:1019C0008AFB0FFA88F8B8F1000F02D52048B0EB77
:1019D00008080FFA88F85FEA282082465046C0B20D
:1019E000FFF71AFE5BFA8AFB404682465046C0B2B9
:1019F000FFF712FE5BFA8AFB0FFA89F9B9F1000FC3
:101A000002D51348B0EB09090FFA89F95FEA2920DA
:101A100082465046C0B2FFF7FFFD5BFA8AFB48469C
:101A200082465046C0B2FFF7F7FD5BFA8AFB4FF4DF
:101A30008071BBFBF1F000FB11B0C0B2FFF7ECFD11
:101A4000AA20FFF7E9FDBDE8F78F00006C0EFF1F2D
:101A50000080FFFF00B587B001A8142104F0EEFF5D
:101A60002748019000208DF8080003208DF8090018
:101A700010208DF80A0004208DF80C0001208DF84C
:101A80000F000FF23900059001A984B068461422B6
:101A900001F0D0F80FBC04F0E2FF0121184805F076
:101AA00081F801A984B06846142201F0C3F80FBC84
:101AB00005F05EF800F01EF807B000BD00201149E7
:101AC0000968080080B240F2BC7101FB00F1090C0A
:101AD0000D4A11807047026852F0400202600268AD
:101AE0005209520102600268C9B211F01F031A4381
:101AF0000260704780B501210148FFF7ECFF01BD8E
:101B000000B0034010B00340F20EFF1F80B5444800
:101B10000068401C4249086041480068062816D306
:101B20004821404804F068FA3F483E49502201F0FD
:101B300081F83C4890F84800012805D100F008F8E9
:101B40003848002180F8481035480021016001BD67
:101B500030B5002400253448406C344902F04AFA7C
:101B60003349086033480068102827DA3148006894
:101B700031492F4A126841F82020002005002D48E5
:101B80000068401C854208DA2B4850F825002100E7
:101B900002F0D2FA04006D1CF1E726480068401CF0
:101BA00002F00EFA0100200002F024FA2349086036
:101BB00020480068401C1F49086024E00020050000
:101BC0000F2D08DA1C4810EB850040681A4941F8CF
:101BD00025006D1CF4E7184815490968C163002009
:101BE0000500102D08DA144850F82500210002F0F5
:101BF000A3FA04006D1CF4E720005FF0834102F0BB
:101C0000F9F90E4908600D48006830BD00B5054877
:101C1000406C064902F0EEF90949086000BD000079
:101C2000D008FF1FF004FF1F4005FF1F0000C8423F
:101C3000C408FF1F1409FF1FD408FF1FC808FF1F97
:101C4000CC08FF1FFF2212EAD05C1DBF12EAD1535D
:101C5000944593422BE09C44D30780EA01021A404A
:101C600043EA002043EA0121A1FB0030410038BFD4
:101C700040007CF17F010BDBFE294ADA5B0842EA77
:101C8000C15153EA006373F1004C51EB10207047CF
:101C9000D1F1080CDCF120012FDB5B0810FA01F117
:101CA0000B4373F1004120FA0CF05041704794450A
:101CB0001CBF02EAD153934280EA010202F00042C3
:101CC0001DD0400019D0490017D05BB9634514D02E
:101CD0000902B1FA81F39940BCEB030CC00140F05A
:101CE0000040C1E70002B0FA80FC10FA0CF0B3EB40
:101CF0000C0CC90141F00041B6E7100070474000EC
:101D00000AD0490008D010F1807F94BF11F1807F84
:101D100002E042F0FF407047D043704700B58BB0FF
:101D200003A81C2104F08AFEB648039001208DF818
:101D30001000FA20059003A984B068461C2200F028
:101D400079FF0FBC05F08EF8282000903D2300227B
:101D50000021AC4805F010F9282000903E23002215
:101D60000121A84805F008F9282000903F2300220F
:101D70000221A44805F000F9282000904023002209
:101D80000321A04805F0F8F82820009060230022E5
:101D900004219C4805F0F0F82820009061230022DF
:101DA0000521984805F0E8F800F046F800F039F809
:101DB0000BB000BD38B504000D00E4B2062C2FD2E4
:101DC000E4B2002C08D0022C12D00BD3042C1BD070
:101DD00014D3052C1ED023E02A000021894805F0E9
:101DE000FCF81DE02A000121864805F0F6F817E00E
:101DF0002A000221834805F0F0F811E02A000321AF
:101E0000804805F0EAF80BE02A0004217D4805F03F
:101E1000E4F805E02A0005217A4805F0DEF8FFE73E
:101E200031BD00B587B000A8182104F007FE00A856
:101E300000F0A2F807B000BD00200021080006282D
:101E40000ADA7149002241F820206F4911EB800124
:101E500000228A61401CF2E77047F8B504000D00CB
:101E600000262F00E4B2062C3DD2002D01D5002023
:101E70000500652D01DB64200500002F01D42F0033
:101E800001E068420700642000FB07F00600E4B2AE
:101E90005D4840F8246040F6C410864206D2E4B2A1
:101EA000594810EB84000021816117E041F288302D
:101EB00086420DD2A6F6C4106421484340F6C411F0
:101EC000B0FBF1F0E4B2504911EB8401886105E008
:101ED000E4B24D4810EB84006421816131002000A0
:101EE000C0B2FFF767FFF1BDF8B504000D00002692
:101EF0002F00E4B2062C25D2002D01D500200500CC
:101F0000652D01DB64200500002D01D42F0001E0C8
:101F10006842070040F6C41000FB07F0642190FB04
:101F2000F1F000F6C4100600E4B2374810EB84006C
:101F30008761E4B2344840F8246031002000C0B228
:101F4000FFF738FFF1BD30B587B004000025002051
:101F50000500062D0BDA54F825102C48FFF772FE09
:101F600000F066F800A941F825006D1CF1E700A813
:101F700000F04EF807B030BD38B504000025002051
:101F80000500062D07DA54F825102800C0B2FFF727
:101F900064FF6D1CF5E731BDF8B504000D000026A7
:101FA0002F00E4B2062C2BD2002D01D50020050015
:101FB000B5F57A7F02DD4FF47A700500002D01D46B
:101FC0002F0001E06842070040F6C41000FB07F054
:101FD0004FF47A7190FBF1F000F6C41006000A206D
:101FE00097FBF0F0E4B2084911EB84018861E4B298
:101FF000054840F8246031002000C0B2FFF7DAFE47
:10200000F1BD0000008003401809FF1F00007A4462
:1020100038B50400002500200500062D07DA54F825
:1020200025102800C0B2FFF7B7FF6D1CF5E731BDE2
:102030004100090E7F3915D4D1F11F0114D440009D
:1020400007D2C00140F00040C84048BF6FF00040D8
:102050007047C00140F00040C8404CBF4FF0004006
:10206000404270470020704700424FF0004058BF88
:10207000C043704780B5022000F0DCF9002801D091
:10208000012000E0002043494871012000F0D2F90E
:10209000002801D0012000E000203E498871042082
:1020A00000F0C8F9002801D0012000E000203949E3
:1020B000C871402000F0BEF9002801D0012000E0E6
:1020C000002034490872334800214172202000F07A
:1020D000B1F9002801D0012000E000202D4908734B
:1020E000102000F0A7F9002801D0012000E0002016
:1020F00028498872082000F09DF9002801D00120AD
:1021000000E000202349C87201BD10B50024082258
:1021100021494FF4807004F015F80400E4B2002C5B
:1021200001D100F003F82000C0B210BD1A48002110
:10213000017019480021417017480021817016482C
:102140000121C1701448002101711348012141711E
:10215000114800218171704710B5002408220F49F1
:102160004FF4807003F0A3FF04002000C0B210BD44
:1021700010B50024FFF7C9FF08220849064804F0FB
:1021800004F8040064B2002C01D1012000E000201A
:1021900010BD0000C80DFF1FD80DFF1FCD0DFF1F84
:1021A00000B587B001A8142104F048FC4E48019006
:1021B000092005F0EDFA029001208DF810000020B2
:1021C0008DF8110001A984B06846142200F032FD98
:1021D0000FBC05F0A7FB00F002F807B000BD00B58A
:1021E00087B001A84149142200F024FD02208DF897
:1021F00004000020049032200390002002900FF28F
:102200006100059001A984B06846142200F012FD17
:102210000FBC05F099FC01A984B06846142200F0B7
:1022200009FD0FBC05F0DCFC07B000BD80B53048EF
:10223000807A002803D12E484078002802D001205F
:1022400000F006F801BD80B5002000F001F801BDE6
:102250002849C0B2086070472749087070470000DD
:1022600038B500240025254800782349097888429C
:1022700006D02248204909780170214800210160D8
:102280001F480068401C1E4908601C480078002850
:1022900002D0012805D009E000200400012005003B
:1022A0000CE0012004000020050007E0134800783E
:1022B000401E040011480078401E050024B210485A
:1022C0000068844202D3FFF7B1FF0CE02DB205FA9B
:1022D00084F00B490968884202D3FFF7B4FF02E09B
:1022E00007480021016031BD40F00F4088AF000079
:1022F000C80DFF1F2408FE43FA0EFF1FFB0EFF1F31
:10230000280AFF1F00B587B001A8142104F096FB2E
:10231000724801901C2005F03BFA029000208DF8D5
:10232000100001A984B06846142200F083FC0FBCA1
:1023300005F0F8FA694801901B2005F029FA02908F
:1023400000208DF8100001A984B06846142200F026
:1023500071FC0FBC05F0E6FA604801901A2005F008
:1023600017FA029000208DF8100001A984B0684689
:10237000142200F05FFC0FBC05F0D4FA574801901E
:102380000C2005F005FA029000208DF8100001A93C
:1023900084B06846142200F04DFC0FBC05F0C2FA70
:1023A0004E4801900B2005F0F3F9029000208DF8C3
:1023B000100001A984B06846142200F03BFC0FBC59
:1023C00005F0B0FA454801900A2005F0E1F90290C5
:1023D00000208DF8100001A984B06846142200F096
:1023E00029FC0FBC05F09EFA3C480190092005F03D
:1023F000CFF9029000208DF8100001A984B0684642
:10240000142200F017FC0FBC05F08CFA3348019041
:10241000082005F0BDF9029000208DF8100001A9F8
:1024200084B06846142200F005FC0FBC05F07AFA6F
:1024300007B000BDF8B504000025002600270020E5
:102440000500082D47DAE00741D5002D0BD0022DFD
:1024500015D00ED3042D1ED017D3062D27D020D390
:10246000072D2AD02FE01C211C4805F009FB07008E
:1024700029E01B21194805F003FB070023E01A217E
:10248000164805F0FDFA07001DE00C21134805F081
:10249000F7FA070017E00B21104805F0F1FA0700E2
:1024A00011E00A210D4805F0EBFA07000BE00921C5
:1024B0000A4805F0E5FA070005E00821074805F09D
:1024C000DFFA0700FFE7FFB217FA05F00643E4B2B0
:1024D00064086D1CB5E73000C0B2F2BD00F10F40DA
:1024E00000B587B001A8142104F0A8FADFF888032A
:1024F0000190192005F04CF9029001208DF8100090
:1025000001208DF81100002003900020059001A902
:1025100084B06846142200F08DFB0FBC05F002FA6F
:10252000DFF854030190182005F032F902900120E1
:102530008DF8100001208DF811000020039000207C
:10254000059001A984B06846142200F073FB0FBC0B
:1025500005F0E8F9DFF824030190082005F018F9E8
:10256000029001208DF8100001208DF8110000204C
:1025700003900020059001A984B06846142200F061
:1025800059FB0FBC05F0CEF9DFF8F00201900920ED
:1025900005F0FEF8029001208DF8100001208DF862
:1025A0001100002003900020059001A984B0684626
:1025B000142200F03FFB0FBC05F0B4F9AF480190C6
:1025C000102005F0E5F8029001208DF810000120A0
:1025D0008DF81100002003900020059001A984B01F
:1025E0006846142200F026FB0FBC05F09BF9A348B7
:1025F0000190112005F0CCF8029001208DF8100018
:1026000001208DF81100002003900020059001A901
:1026100084B06846142200F00DFB0FBC05F082F96F
:1026200096480190122005F0B3F8029001208DF831
:10263000100001208DF8110000200390002005906B
:1026400001A984B06846142200F0F4FA0FBC05F02A
:1026500069F98A480190132005F09AF80290012048
:102660008DF8100001208DF811000020039000204B
:10267000059001A984B06846142200F0DBFA0FBC73
:1026800005F050F907B000BD38B504000025002062
:102690000500082D09DAE00703D50121280000F024
:1026A0001CF8E4B264086D1CF3E731BD38B50400D2
:1026B000002500200500082D0EDAE00704D50121D1
:1026C000280000F00AF803E00021280000F005F8D7
:1026D000E4B264086D1CEEE731BD00285FD4082821
:1026E0005DDA00280BD002281DD012D304282ED08A
:1026F00023D306283FD034D3072846D04FE0C9B2B1
:10270000002901D1012200E000225D4BD2B21A6003
:1027100045E0C9B2002901D1012200E00022594B55
:10272000D2B21A603BE0C9B2002901D1012200E017
:102730000022554BD2B21A6031E0C9B2002901D152
:10274000012200E00022514BD2B21A6027E0C9B248
:10275000002901D1012200E000224D4BD2B21A60C3
:102760001DE0C9B2002901D1012200E00022494B3D
:10277000D2B21A6013E0C9B2002901D1012200E0EF
:102780000022454BD2B21A6009E0C9B2002901D13A
:10279000012200E00022414BD2B21A60FFE77047ED
:1027A000002867D4082865DA00280BD002281FD03B
:1027B00013D3042832D026D3062845D039D307288E
:1027C0004DD057E036490968002901D1012100E0C8
:1027D00000212B4AC9B211604CE032490968002936
:1027E00001D1012100E00021264AC9B2116041E077
:1027F0002D490968002901D1012100E00021224A68
:10280000C9B2116036E029490968002901D10121C6
:1028100000E000211D4AC9B211602BE0244909687B
:10282000002901D1012100E00021194AC9B211603B
:1028300020E020490968002901D1012100E00021A0
:10284000144AC9B2116015E01B490968002901D179
:10285000012100E00021104AC9B211600AE01749C5
:102860000968002901D1012100E000210B4AC9B209
:102870001160FFE77047000000F00F4080F00F404C
:102880006400FE436000FE432010FE432410FE431C
:102890004010FE434410FE434810FE434C10FE43DC
:1028A0006402FE436002FE432012FE432412FE43F4
:1028B0004012FE434412FE434812FE434C12FE43B4
:1028C00038B50400002500200500082D08DAE007CF
:1028D00002D52800FFF764FFE4B264086D1CF4E73A
:1028E00031BD000010B5A4B00024B74800F01FF8B7
:1028F000002802D1002004000FE0B34984B06846EC
:10290000A02200F097F90FBC00F019F8002802D1BE
:102910000020040001E001200400E4B2002C02D1F8
:10292000A94800F020F82000C0B224B010BD10B5B6
:1029300004009D222100002003F004FC10BD0FB410
:1029400080B59D2102A805F099F9002801D000204A
:1029500006E09DF808009D2801D0002000E001203D
:1029600002BC5DF814FB70B5040000259D202070AA
:102970007FF0C700A4F801006420A4F80300002041
:10298000A4F805000520A4F813002920A4F81500D8
:102990007FF00F00A4F817000020A4F82500002005
:1029A000A4F827000020A4F8290000200500032D2A
:1029B00011DA14EB85008549C0F8071014EB850087
:1029C0008349C0F8191014EB85005FF07E51C0F800
:1029D0002B106D1CEBE700200500042D0DDA14EB25
:1029E00085004FF4BE61C0F8371014EB85004FF43A
:1029F0002F71C0F847106D1CEFE700200500022D75
:102A00002ADA142000FB05407249C0F85710142040
:102A100000FB05407049C0F85B10142000FB054026
:102A20006E49C0F85F10142000FB05406C49C0F8E7
:102A30006710142000FB0541D1F86700142101FB49
:102A40000542D2F85B10142202FB054601F0D2FACF
:102A5000C6F863006D1CD2E75FF07A50C4F87F00BF
:102A60000020C4F883000020C4F887000020C4F8C8
:102A70008F00D4F88F00D4F8831001F0BBFAC4F8AB
:102A80008B005848C4F893005748C4F897002000BA
:102A900000F001F870BD10B582B004000020ADF860
:102AA00000009B21200005F0E9F8ADF8000000A827
:102AB00005F00EF9BDF80000A4F89B0013BD0FB49B
:102AC00010B5002402A8FFF7E6FF9D2202A900200E
:102AD00003F0EDFA04002000C0B210BC5DF814FB56
:102AE000394870470FB410B586B0002400200400A8
:102AF000032C49DA08A810EB4400B0F801003B4968
:102B000021F8140008A810EB8400D0F8071038480A
:102B100040F8241008A810EB4400B0F81300354921
:102B200021F8140008A810EB8400D0F819103248DE
:102B300040F8241008A810EB4400B0F825002F49F5
:102B400021F8140008A810EB8400D0F82B102C48B2
:102B500040F824100020142108AA01FB0421411888
:102B600091F8571000AA8154401C1428F3DB14205C
:102B7000244900FB041000A9142200F05BF821484E
:102B800005F0BEF8641CB3E700200400042C11DA41
:102B900008A810EB8400D0F837001B4941F8240046
:102BA00008A810EB8400D0F84700184941F8240029
:102BB000641CEBE70DF1B30001681548016006B035
:102BC00010BC5DF814FB0000800CFF1FCCCC1C3A3D
:102BD00054A08B3A6666E63E0AD7233B000070415C
:102BE000CDCC4C3DCDCC6C410000F0418804FF1FA2
:102BF0002C04FF1F9004FF1F3804FF1F600CFF1FF1
:102C00001004FF1F980AFF1F4404FF1F5404FF1FF6
:102C10008004FF1F62B38B0708D0521E11F8013BDE
:102C200000F8013B00F024808B07F6D1830740F0C9
:102C3000208000BF103A07D330B4B1E83810103A02
:102C4000A0E83810F9D230BC530724BFB1E808100F
:102C5000A0E8081044BF51F8043B40F8043BD207F9
:102C600024BF31F8022B20F8022B44BF0B780370ED
:102C70007047083A07D3B1E80810083A40F8043B17
:102C800040F804CBF7D25307E4E700003FB5002437
:102C9000002500A8102103F0D1FE002004000A2C1A
:102CA0001BDADFF8AC030021016000200500042DD1
:102CB0000CDA00A850F82500DFF8981351F8251019
:102CC000081800A941F825006D1CF0E7DFF8800323
:102CD00000681428FAD3641CE1E700200500042DE5
:102CE0000BDA00A850F825000A21B0FBF1F0DFF85C
:102CF000681341F825006D1CF1E73FBD10B58CB09D
:102D0000002408A8102103F099FE04A8102103F064
:102D100095FE00A8102103F091FEF520FFF7C6FCF8
:102D20000420FFF787FB00282BD100200400042C8F
:102D3000F6DAC84850F82400C74951F82410401A60
:102D400000A941F8240008A850F8240000A951F86F
:102D50002410884205DA08A800A951F8241040F888
:102D6000241000A850F8240004A951F82410884227
:102D700005DA04A800A951F8241040F82410641CB6
:102D8000D5E700200400042C19DA08A850F8240024
:102D900004A951F82410C84208DB04A850F8240004
:102DA00040424000AD4941F8240006E008A850F830
:102DB00024004000A94941F82400641CE3E7A74827
:102DC0000A9981600CB010BD80B50120FFF744FA6C
:102DD0004FF47A7002F02CFD0020FFF73DFAFFF768
:102DE00055FF0120FFF738FA4FF47A7002F020FD0A
:102DF0000020FFF731FA00F027F8002803D1012066
:102E0000FFF72AFAF7E701BD80B50120FFF724FAA2
:102E10004FF47A7002F00CFD0020FFF71DFAFFF767
:102E20006DFF0120FFF718FA4FF47A7002F000FDF1
:102E30000020FFF711FA00F046F8002803D1012026
:102E4000FFF70AFAF7E701BD002083498968B1F569
:102E5000FA6F07D880498968B1F5E16F02D3012183
:102E6000080001E0002108007B49C968B1F5C86F7E
:102E700007D87949C968B1F5AF6F02D301210800BD
:102E800001E00021080074494968B1F5C86F07D80E
:102E900071494968B1F5AF6F02D30121080001E023
:102EA000002108006C490968B1F5C86F07D86A4964
:102EB0000968B1F5AF6F02D30121080001E00021DC
:102EC0000800C0B27047002100200100042909DA7F
:102ED000624850F82100B0F5C87F01D2002002E01E
:102EE000491CF3E70120704738B500245948806831
:102EF00001F070F805005848806801F06BF8010097
:102F0000280001F05BF905005448806801F062F880
:102F10000100280001F06EF80400200000F080F8A5
:102F200004002000002101F0E3F801D20020040099
:102F3000200032BD38B500244648C06801F04AF888
:102F400005004548C06801F045F80100280001F07F
:102F500035F905004148C06801F03CF85FF0804158
:102F600001F048F80100280001F044F804002000B6
:102F700000F056F80400200032BD38B50024354872
:102F8000406801F027F805003348406801F022F856
:102F90000100280001F012F905003048406801F0F6
:102FA00019F85FF0804101F025F80100280001F0D8
:102FB00021F80400200000F033F80400200032BDA6
:102FC00038B500242348006801F004F805002248C1
:102FD000006800F0FFFF0100280001F0EFF8050095
:102FE0001E48006800F0F6FF5FF0804101F002F833
:102FF0000100280000F0FEFF0400200000F010F89F
:103000000400200032BD002012490969B1F57A7F21
:1030100002D90121080001E000210800C0B2704778
:1030200000B50200002310000D4901F073F803D829
:103030005FF07E50030008E010000A4901F058F8E4
:1030400002D20848030000E01300180000BD000091
:10305000E40DFF1F4809FF1F4404FF1F5404FF1F16
:103060000100803F000080BF10B40023190081429E
:103070000DD2124B1B684FF47A74B3FBF4F31A00B1
:10308000002A02D000BF521EFAE7491CEFE710BC2D
:103090007047000010B40023190081420CD2074B86
:1030A0001B68074CB3FBF4F31A00002A02D000BFE0
:1030B000521EFAE7491CF0E710BC70472004FF1FBE
:1030C00040420F0038B504000D00DFF8A40484422C
:1030D00007D1280080B205F065F8DFF89814086081
:1030E0003AE0DFF89404844207D1280080B205F06A
:1030F00059F8DFF8801448602EE0DFF8800484423D
:1031000007D1280080B205F04DF8DFF86814886018
:1031100022E0DFF86C04844207D1280080B205F079
:1031200041F8DFF85014C86016E0DFF85804844214
:1031300007D1280080B205F035F8DFF838140861AF
:103140000AE0DFF84404844206D1280080B205F08A
:1031500029F8DFF82014486131BD10B50400DFF80C
:103160001004844205D1DFF80C04006805F044F82F
:103170002CE0DFF80404844205D1DFF8F80340684E
:1031800005F03AF822E0DFF8F403844205D1DFF8D5
:10319000E403806805F030F818E0DFF8E4038442C7
:1031A00005D1DFF8D003C06805F026F80EE0DFF89F
:1031B000D403844205D1DFF8BC03006905F01CF894
:1031C00004E0DFF8B003406905F016F810BD38B52B
:1031D00004000D00DFF89803844207D1290049B2AA
:1031E000DFF89003006805F01FF836E0DFF8880389
:1031F000844207D1290049B2DFF87803406805F01E
:1032000013F82AE0DFF87403844207D1290049B299
:10321000DFF86003806805F007F81EE0DFF8600360
:10322000844207D1290049B2DFF84803C06804F09E
:10323000FBFF12E0DFF84C03844207D1290049B2BA
:10324000DFF83003006904F0EFFF06E0290049B21F
:10325000DFF82003406904F0E7FF32BD10B5040039
:10326000DFF80C03844205D1DFF80803006804F09E
:10327000F5FF2CE0DFF80003844205D1DFF8F4020B
:10328000406804F0EBFF22E0DFF8F002844205D151
:10329000DFF8E002806804F0E1FF18E0DFF8E00208
:1032A000844205D1DFF8CC02C06804F0D7FF0EE0FD
:1032B000DFF8D002844205D1DFF8B802006904F0DB
:1032C000CDFF04E0DFF8AC02406904F0C7FF10BD99
:1032D00038B504000D00290049B22000FFF777FF40
:1032E00032BD38B504000D0095F9000000280AD061
:1032F00095F900102000FFF7EBFF002801D06D1CAE
:10330000F2E7002000E0012032BD70B504000D009E
:10331000002600200600AE4210DA2000FFF71DFF55
:10332000002809D12000FFF799FF010049B22000D1
:1033300005F0A6F9761CEEE7002000E0012070BD44
:1033400038B504000D00DFF82802844207D12800B8
:1033500080B204F027FFDFF8341208603AE0DFF8AB
:103360001802844207D1280080B204F01BFFDFF866
:103370001C1248602EE0DFF80402844207D12800C6
:1033800080B204F00FFFDFF80412886022E0DFF85B
:10339000F001844207D1280080B204F003FFDFF877
:1033A000EC11C86016E0DFF8DC01844207D1280088
:1033B00080B204F0F7FEDFF8D41108610AE0DFF80C
:1033C000C801844206D1280080B204F0EBFEDFF889
:1033D000BC11486131BD10B504006548844204D178
:1033E0006A48006804F0FAFE23E06348844204D18E
:1033F0006648406804F0F2FE1BE06048844204D155
:103400006248806804F0EAFE13E05D48844204D11B
:103410005E48C06804F0E2FE0BE05A48844204D1E2
:103420005A48006904F0DAFE03E05848406904F0A5
:10343000D5FE10BD38B504000D004D48844206D1BC
:10344000290049B25148006804F0EEFE2DE04A48D8
:10345000844206D1290049B24C48406804F0E4FE99
:1034600023E04648844206D1290049B24748806893
:1034700004F0DAFE19E04248844206D1290049B23C
:103480004248C06804F0D0FE0FE03E48844206D1B6
:10349000290049B23D48006904F0C6FE05E0290054
:1034A00049B23A48406904F0BFFE32BD10B504008D
:1034B0002F48844204D13548006804F0CFFE23E051
:1034C0002D48844204D13148406804F0C7FE1BE017
:1034D0002A48844204D12D48806804F0BFFE13E0DE
:1034E0002748844204D12948C06804F0B7FE0BE0A5
:1034F0002448844204D12548006904F0AFFE03E06B
:103500002248406904F0AAFE10BD10B50400184816
:10351000844204D11D48006804F0BAFE26E0164833
:10352000844204D11948406804F0B2FE1EE01348FA
:10353000844204D11548806804F0AAFE16E01048C1
:10354000844204D11148C06804F0A2FE0EE00D4888
:10355000844204D10D48006904F09AFE06E00A484E
:10356000844203D10948406904F092FE10BD000076
:1035700000A006403C0EFF1F00B0064000C0064001
:1035800000D0064000A00E4000B00E40540EFF1FB9
:1035900010B582B00024DFF89407002180F83810BD
:1035A00000200400022C35DA1420DFF8841700FB19
:1035B0000410DFF8801701601420DFF8741700FB97
:1035C0000410DFF8741741601420DFF8641700FB63
:1035D0000410DFF8681781601420DFF8541700FB2F
:1035E0000410DFF85C1701611420DFF8441700FBBA
:1035F000041000691421DFF8382701FB0421496811
:1036000000F0F8FC1421DFF8282701FB0421C86032
:10361000641CC7E7DFF81807DFF818178162DFF8C6
:103620001007DFF81417C162DFF80407DFF814177A
:103630000163DFF8FC06DFF808178163DFF8F006A6
:10364000806BDFF8EC16C96A00F0D4FCDFF8E016F6
:103650004863DFF8DC0604F053FBDFF8EC06DFF824
:10366000EC160160DFF8E006DFF8E4164160DFF8F1
:10367000D8065FF07E518160DFF8CC06DFF8D41603
:103680000161DFF8C4060069DFF8BC16496800F084
:10369000B1FCDFF8B416C860DFF8AC1684B0684639
:1036A0001422FFF7C7FA0FBC04F01AFC0020040034
:1036B000022C34DA1420DFF8A01600FB0410DFF827
:1036C0009C1601601420DFF8901600FB0410002106
:1036D00041601420DFF8801600FB0410DFF880162C
:1036E00081601420DFF8701600FB04105FF07E513B
:1036F00001611420DFF8601600FB0410006914213A
:10370000DFF8542601FB0421496800F073FC142102
:10371000DFF8442601FB0421C860641CC8E7DFF819
:10372000380604F058FC00200400042C07DADFF807
:10373000FC0510EB840000210162641CF5E7DFF852
:10374000EC0501F098F813BD80B5DFF8E00540699D
:10375000DFF81016096800F0CBFC03D2002000F05F
:1037600009F806E0DFF8C4054169DFF8C00500F09C
:1037700018F801BD38B50400002500200500062D0D
:1037800006DADFF8A80510EB850004626D1CF6E789
:1037900000F001F831BD80B5DFF8CC05FEF7D3FBB2
:1037A00001BD2DE9F04192B007000D000024FDF7A6
:1037B00080FE060083B068460ECE0EC03168016000
:1037C0000C3E0C380EBC0EA801F012F93A000EA9FE
:1037D0000AA801F08EF80AA801F055F8DFF88C0568
:1037E0000AA91022FFF726FA01A8002100220023CF
:1037F0000EC00C3807A80021002200230EC00C3890
:1038000004A80021002200230EC00C3804A8009058
:103810000AA80FC801F003F900200400032C32DAD3
:1038200004A850F82400DFF8481500F073FC0AD80B
:1038300004A850F82400DFF83C1500F07DFC04A932
:1038400041F8240011E004A850F82400DFF82815FE
:1038500000F04EFC09D204A850F82400DFF81C1533
:1038600000F06AFC04A941F8240004A850F82400E0
:10387000DFF80C1500F0BEFB614207AA12EB8101D4
:103880008860641CCAE701A907A804F059FA00205F
:103890000400032C08DADFF8EC0401A951F8241025
:1038A00040F82410641CF4E700200400032C11DA13
:1038B00001A850F8240005F013F8DFF8CC24DFF855
:1038C000CC3405F035F805F005F901A941F82400DC
:1038D000641CEBE701985FF0804100F08BFB010076
:1038E000280000F06BFC80460299DFF8A404FEF784
:1038F000A9F95FF0804100F07DFB0100404600F037
:103900005DFC039900F05AFCDFF82014086201986E
:103910005FF0804100F06EFB0100280000F04EFCDB
:10392000039900F009FCDFF80414486201985FF085
:10393000804100F05FFB0100280000F03FFC804662
:103940000299DFF84C04FEF77DF95FF0804100F04A
:1039500051FB414600F0F0FB039900F02FFCDFF82B
:10396000CC13886201985FF0804100F043FB29008E
:1039700000F0E2FB80460299DFF81404FEF762F9DA
:103980005FF0804100F036FB414600F0D5FB039923
:1039900000F0D2FBDFF89413C86201985FF0804119
:1039A00000F028FB290000F0C7FB039900F006FC9B
:1039B000DFF87813086301985FF0804100F01AFB8C
:1039C000290000F0B9FB80460299DFF8C403FEF736
:1039D00039F95FF0804100F00DFB0100404600F036
:1039E000EDFB039900F0A8FBD0494863FFF7D3FE35
:1039F00012B0BDE8F081CD487047DFF8880370470A
:103A000010B5CA4890F8380000280CD0FDF78EFD9C
:103A100007C805F0A7F8002805D0DFF878030121D2
:103A2000C17000F049F8C14890F83800002808D06B
:103A300001280DD003280ED0052818D0072822D041
:103A400036E00120FEF708FC0020FFF793FE32E08D
:103A5000FFF77AFE2FE0D048008800F0BBFACF498C
:103A600000F0C8FA00F031F8FFF76EFE23E000F036
:103A700097FA040000F094FA6168006800F04DF8CD
:103A8000FFF762FE17E0C448008800F0A3FAC349BC
:103A900000F0B0FA00F019F800F082FA040000F02B
:103AA0007FFA6168006800F038F8FFF74DFE02E029
:103AB0000020FFF75FFE10BD80B59C48002180F814
:103AC00038100020FFF756FE01BD38B50400002570
:103AD000B3480068401CB2490860B14800680F282C
:103AE0001ADBB0480078002806D190480069210010
:103AF00000F064FB050001E0AB480500280004F07D
:103B0000FEF9AA49096800F017FB9E49C86000F059
:103B1000DCF8A3480021016031BD2DE9F04F8BB0E6
:103B200083468A460024A2480068401CA0490860D9
:103B30009F480068192808DA9E4882689D484168B5
:103B40009C48006800F0A8F8A3E0994800210160B3
:103B500006A80021002206C0083801A80021002282
:103B600006C0083808A80021002200230EC00C3827
:103B70006E488069594600F021FB06906B48C06989
:103B8000514600F01BFB079001A906A804F040FA7B
:103B9000029890F00040029008A8009063480FC877
:103BA00000F03DFFFDF7C2FC0068754900F022FA05
:103BB000050008980390280004F092FE04F0FAFF34
:103BC00080468946280004F08BFE04F0F6FF0600CC
:103BD0000F00019804F084FE42464B4604F0A8FE14
:103BE00080468946029804F07BFE32003B0004F0D8
:103BF0009FFE02000B004046494604F0E1FF04F03E
:103C000069FF0490280004F06BFE04F0D6FF8046A4
:103C10008946280004F064FE04F0CCFF06000F0083
:103C2000019804F05DFE42464B4604F081FE80465A
:103C30008946029804F054FE32003B0004F078FEFE
:103C400042464B4605F07CF804F044FF0590059A87
:103C50000499039800F020F85648039901605548EC
:103C60000499416053480599816000200400022CAA
:103C70000FDA444810EB840001A951F824100162C6
:103C8000404810EB840006A951F824108162641C9E
:103C9000EDE70BB0BDE8F08F70B588B004000D0003
:103CA000160000A80021002200230EC00C3800944A
:103CB0000195029600A903A800F06BFF1B4803A919
:103CC0001022FEF7B7FF08B070BD00B501003A48FA
:103CD000006800F00DFA02D237480068010013486E
:103CE000416100BD114981F8380070470F4991F8D2
:103CF000381001430D4A82F8381070470B4991F88B
:103D000038108143094A82F83810704710B5040012
:103D10002A480068210000F00FFA0449086110BD2C
:103D2000024A9061014AD161704700002C0AFF1FCE
:103D3000980AFF1F6666E63E0AD7233B00007041E3
:103D4000CDCC4C3D0000F0416404FF1FCDCC4C3E77
:103D50000AD7A33B3333B33ED40AFF1F0000B04061
:103D600000004842E4C200004C0AFF1F780AFF1F0F
:103D7000010034430000B4C3000034C30000B44366
:103D8000E12E6542680AFF1F9A9999999999F13F26
:103D900036CD933FC80DFF1FF00EFF1F00007A4481
:103DA000FC0AFF1FF40EFF1FCDCCCCBDECC20000FF
:103DB000000BFF1F040BFF1FE8C20000F0C2000051
:103DC00000B583B000A801F091FA76489DF8001084
:103DD00001709DF8020040427249487071489DF997
:103DE000011081706F489DF80310C1706D489DF8F7
:103DF000041081806B4880889DF8051051EA0020EE
:103E00006849888067489DF80610817107BD65483C
:103E10007047654A126842FA80F2634B1A60624A40
:103E2000526842FA81F2604B5A6070472DE9FF4FA9
:103E300085B0DDF848B0DDF84CA05FF000095FF018
:103E4000000800200390002002909DF9140000F06B
:103E5000B7F856490968FDF7F5FE5146FDF7F2FE41
:103E600081469DF9180000F0ABF850490968FDF74C
:103E7000E9FE5146FDF7E6FE804608985146FDF7FB
:103E8000E1FE04F02DFD4B4A4B4B04F051FD0022A6
:103E90004A4B04F04DFD04F01DFE0390079890F08E
:103EA00000405146FDF7CEFE04F01AFD414A424B58
:103EB00004F03EFD0022414B04F03AFD04F00AFEFE
:103EC00002904846039900F079F9814640460299EC
:103ED00000F074F98046584604F002FD04F06AFED2
:103EE00006000F00584604F0FBFC04F066FE0400D8
:103EF0000D002F48006804F0F3FCCDE900014846AE
:103F000004F0EEFC32003B0004F012FD06000F004E
:103F1000404604F0E5FC22002B0004F009FD0200FD
:103F20000B003000390004F04BFEDDE9002304F003
:103F300007FF04F0CFFD1E490860584604F0D0FC8E
:103F400004F03BFE06000F00584604F0C9FC04F0E4
:103F500031FE04000D001648406804F0C1FCCDE9B4
:103F60000001484604F0BCFC32003B0004F0E0FCD9
:103F700006000F00404604F0B3FC22002B0004F0C2
:103F8000D7FC32003B0004F0DBFEDDE9002304F047
:103F9000D7FE04F09FFD0649486009B0BDE8F08FE8
:103FA000034870479805FF1FA005FF1FC8C2000007
:103FB000A805FF1FFCA9F1D24D62503F0000104040
:103FC000002840F10980F446404200F005F850F026
:103FD00000406047002800BF0AD0B0FA80F1884056
:103FE000D1F19D01C905020672F1004241EB10209A
:103FF0007047000010B5FF2313EAD0541DBF13EA29
:10400000D1529C429A4239E0A41ADA0780EA0103AD
:10401000134042EA012142EA0020421A3CBF641EDA
:1040200001EB4202090AB2FBF1FE01FB1E22120261
:10403000B2FBF1F001FB10226EF30F201202B2FB73
:10404000F1FE4EEA00207F3406DDFE2C24DA53EA2E
:10405000500050EBC45010BDD4F1020401FB1E22ED
:1040600040F08071192C1DDC21FA04F0C4F1200409
:10407000A140114371F10042584110BD9C421ABF4A
:1040800003EAD1529A420FE080EA010E0EF000439B
:10409000400004D0490016D143F0FF4010BD490054
:1040A00008BFD343180010BD9C4205D1D21AF7D0E7
:1040B00001F00041484010BD4A0212BF0846484086
:1040C00000F0004010BD4AB90902B1FA81F29140F6
:1040D00044B1A418C00140F000409EE7C90141F07E
:1040E000004152420002B0FA80F4A040141B94E751
:1040F0004FF0807C1CEB400F94BF1CEB410F05E0A0
:1041000040EA010C5FEA4C0C01D28842704718BFAC
:10411000814270474FF0807C1CEB400F94BF1CEB3A
:10412000410F05E040EA010C5FEA4C0C01D28142EC
:10413000704718BF8842704790EA010F44BF81F072
:10414000004100F043B800BF421A3CBF801A8918F2
:104150004FF0004CC0F3C752FF2A24D0C1F3C7531D
:1041600013B3D21AD2F1190327DD4CEA01214CFA1C
:1041700003F321EA0303D140C20D4CEA00204018AA
:1041800034BF20EA0C004CEA5000D20553EA006329
:1041900073EB0C0C52EB1020420012F1807F38BF01
:1041A0007047C00DC0057047490212BF9A4200EB2C
:1041B0005120F8E7D2F11703D9D5704790EA010FE3
:1041C00044BF81F00041FFF7BFBF00BF431A4FF06B
:1041D00000423EBF5340C01AC91800BFD3095FEA6E
:1041E000D05C13EB400F34BFB3EB410F40E07CEBEE
:1041F000D1530CD342EA012122D8D1EB402009D37C
:10420000400A28BF5FEA500140EBCC507047401A8B
:1042100015D04002B0FA80F2521C9040400A4FEA9A
:104220003C23B3EB026384BF00EB730007E040F470
:1042300000001A16DB07C2F10102D0401843704794
:10424000182BFCDC31FA03F202FA03F3591A38BFD7
:1042500042F00102D2EB40203CBF4000ACF1010C27
:104260005FEACC5CC20572F100414CEB5020704714
:1042700013EB400F0FD24B0009D0ACEBD153022B04
:1042800003DB4902172BDDDD70479143401A4300E1
:10429000D5D10020704713EB410FD0D36FF0000051
:1042A0007047000070B504000D001600306801284A
:1042B00002D0022805D00AE0200040B27168884789
:1042C00005E0B0680470B068401CB060FFE7286883
:1042D000401C286070BD2DE9F04704005FF0000A23
:1042E0005046A1465FF0000A89F800A019F10109C3
:1042F000002A1FD0D1F800A05546002D05D15FF04F
:10430000300A89F800A0401C38E0002D36D095FB1B
:10431000F3FA564603FB165A5746002F02D5FF43C1
:10432000313700E03037350089F8007019F10109A4
:10433000401CEAE7D1F800A0D446BCF1000F05D13B
:104340005FF0300A89F800A0401C17E0BCF1000FB4
:1043500014D0BCFBF3FAD64603FB1ECAD046B8F114
:104360000A0F02D218F1300801E018F13708F446BC
:1043700089F8008019F10109401CE7E7BDE8F087E2
:104380002DE9F04104000D0016001F00A046A845CD
:1043900007DA3A0031003020FFF784FF18F10108F6
:1043A000F5E7BDE8F0812DE9F04104000D001600AD
:1043B0001F00A046A84507DA3A0031002020FFF789
:1043C00071FF18F10108F5E7BDE8F0812DE9F24F22
:1043D00092B00400150000200090129883469BF9CB
:1043E00000000590002800F0F5810598252813D0DD
:1043F00005980A2805D0220000A90598FFF752FF6A
:1044000009E0220000A90D20FFF74CFF220000A9BF
:104410000A20FFF747FFDAE10020814600200390E1
:104420000398002822D11BF1010B9BF900002028E2
:104430000ED0232812D02B2807D02D2802D03028C8
:1044400009D00EE059F00109EAE759F00209E7E75F
:1044500059F00409E4E759F00809E1E759F01009B7
:10446000DEE7BBF1010B01200390D9E70020824673
:10447000002003900398002813D11BF1010B9BF936
:10448000000005903038092806D80A20059900FB5D
:104490000A10B0F1300AEDE7BBF1010B01200390E7
:1044A000E8E71BF1010B9BF900002E2811D1002039
:1044B0000390039800280ED11BF1010B9BF900001B
:1044C0003038092800D8F4E7BBF1010B0120039034
:1044D000EFE7BBF1010B1BF1010B9BF900004C282E
:1044E00006D0682802D06C2801D002E003E002E088
:1044F00001E0BBF1010B1BF1010B9BF900000590E2
:10450000582875D0622800F0D580632800F01F81FC
:10451000642813D0692811D06E2800F04C816F28D0
:1045200000F0BD80702800F0D080732800F0198161
:10453000752800F0D58078285AD043E12868069085
:104540002D1D0A23012206A909A8FFF7C4FE0700B2
:1045500009A8381806000698002803D52D200290D7
:104560007F1C0FE05FEA897003D52B2002907F1C2F
:1045700008E05FEA497003D5202002907F1C01E02B
:1045800000200290002004905FEA097011D5029883
:10459000002804D0220000A90298FFF783FE012022
:1045A0000490230000AA51463800FFF7E9FE574661
:1045B00012E05FEAC9700FD4230000AA5146380008
:1045C000FFF7F1FE0298002804D0220000A902980B
:1045D000FFF768FE012004900498002807D1029894
:1045E000002804D0220000A90298FFF75BFE98E0A3
:1045F000286801902D1D1023002201A909A8FFF7AA
:104600006AFE070009A838180600002004905FEA37
:10461000097016D55FEAC9600BD5220000A93020C9
:10462000FFF740FE220000A97820FFF73BFE0120A3
:104630000490230000AA51463800FFF7A1FE574618
:104640001BE05FEAC97018D45FEAC96000D5BF1CDF
:10465000230000AA51463800FFF7A5FE5FEAC960B3
:104660000BD5220000A93020FFF71CFE220000A974
:104670007820FFF717FE012004905FEAC9600DD58E
:10468000049800280AD1220000A93020FFF70AFE72
:10469000220000A97820FFF705FEBF1C41E0286832
:1046A00001902D1D0823002201A909A8FFF713FE80
:1046B00007001FE0286801902D1D0223002201A998
:1046C00009A8FFF708FE070014E0286801902D1DD7
:1046D0001023002201A909A8FFF7FDFD070009E04A
:1046E000286801902D1D0A23002201A909A8FFF7BF
:1046F000F2FD070009A8381806005FEA097007D51F
:10470000230000AA51463800FFF73AFE574608E05A
:104710005FEAC97005D4230000AA51463800FFF7AC
:1047200042FE96F90000002807D0220000A996F961
:104730000000FFF7B7FD761EF3E75FEAC97005D505
:10474000230000AA51463800FFF72DFE3FE095F9FF
:10475000000007902D1D220000A90798FFF7A2FD79
:1047600035E0286880462D1DB8F1000F22D0404664
:1047700004F05AFB07005FEAC97005D4230000AAC1
:1047800051463800FFF70FFE98F90000002808D0C6
:10479000220000A998F90000FFF784FD18F1010834
:1047A000F2E75FEAC97005D5230000AA5146380038
:1047B000FFF7F9FD0BE0286808902D1D0898009977
:1047C000016004E0220000A90598FFF76BFD1BF1D2
:1047D000010B04E6009813B0BDE8F08F0CB4FEB5F1
:1047E00004000D000027002C0DD002200090029440
:1047F00008A806003200290000A8FFF7E7FD07001F
:104800000298002101703800FEBC5DF80CFB00002E
:104810002DE9F04104005FF07F585FF07C502100EB
:10482000FDF710FA060027003D00DFF8F805B0EBB1
:1048300065052F0030003900FDF704FA3900FDF757
:1048400001FA01004046FFF7B9FC3900FDF7FAF91B
:10485000070030003900FDF7F5F93900FDF7F2F9EE
:1048600001004046FFF7AAFC3900FDF7EBF907000D
:104870003800BDE8F0815FF07E5101600021C16029
:1048800081604160704738B5040021682068FDF7F9
:10489000D9F9050061686068FDF7D4F92900FFF7D0
:1048A0004BFC0500A168A068FDF7CCF92900FFF7D3
:1048B00043FC0500E168E068FDF7C4F92900FFF753
:1048C0003BFCFFF7A5FF050020682900FDF7BAF9BA
:1048D000206060682900FDF7B5F96060A0682900D4
:1048E000FDF7B0F9A060E0682900FDF7ABF9E060E2
:1048F00031BDF0B504000D00160029683068FDF7E1
:10490000A1F9070069687068FDF79CF9010038009B
:10491000FFF754FC0700A968B068FDF793F90100A0
:104920003800FFF74BFC0700E968F068FDF78AF9EB
:1049300001003800FFF742FC206069683068FDF72D
:1049400081F9070029687068FDF77CF93900FFF7E5
:10495000F3FB0700A968F068FDF774F93900FFF769
:10496000EBFB0700E968B068FDF76CF9010038005F
:10497000FFF724FC6060A9683068FDF763F9070061
:104980002968B068FDF75EF93900FFF7D5FB07002D
:10499000E9687068FDF756F93900FFF7CDFB0700AD
:1049A0006968F068FDF74EF901003800FFF706FC72
:1049B000A060E9683068FDF745F907002968F068EC
:1049C000FDF740F93900FFF7B7FB07006968B068E9
:1049D000FDF738F93900FFF7AFFB0700A9687068E9
:1049E000FDF730F901003800FFF7E8FBE060F0BDAB
:1049F0000EB4F0B505990091069991F0004101912E
:104A0000079991F000410291089991F000410391BA
:104A100000A91022FEF70EF904B05DF810FB2DE995
:104A2000FF4F83B0109C03988246049805000598B8
:104A30000600069807005FF080403100FDF702F99C
:104A40003100FDF7FFF801005FF07E50FFF7B6FB85
:104A500080465FF080403900FDF7F4F83900FDF73B
:104A6000F1F801004046FFF7A9FB03F039FF02000F
:104A70000B00904699465FF080405146FDF7E2F802
:104A80003900FDF7DFF883465FF080402900FDF72D
:104A9000D9F83100FDF7D6F85946FFF74DFB03F082
:104AA0001FFF42464B4604F0D1F95FF00052DE4B47
:104AB00003F03EFF04F00EF802905FF08040514694
:104AC000FDF7C0F83100FDF7BDF880465FF080408B
:104AD0003900FDF7B7F82900FDF7B4F801004046AA
:104AE000FFF76CFB03F0FCFE04F038FA5FF00052B5
:104AF000CD4B03F01DFF03F0EDFF01905FF0804010
:104B00002900FDF79FF82900FDF79CF801005FF0F0
:104B10007E50FFF753FB80465FF080403100FDF789
:104B200091F83100FDF78EF801004046FFF746FB93
:104B300003F0D6FE02000B00904699465FF08040DD
:104B40005146FDF77FF82900FDF77CF883465FF0BA
:104B500080403100FDF776F83900FDF773F85946CB
:104B6000FFF7EAFA03F0BCFE42464B4604F06EF94A
:104B70005FF00052AC4B03F0DBFE03F0ABFF0090A4
:104B800002982060019860600098A06007B0BDE8BE
:104B9000F08F2DE9F34F8BB00C980068A349FFF715
:104BA00029FA5FF08041FFF725FA02900C984068DF
:104BB0009E49FFF71FFA5FF08041FFF71BFA019053
:104BC0000C9880689949FFF715FA5FF08041FFF76C
:104BD00011FA0090009803F083FE03F0EBFF04004D
:104BE0000D00019803F07CFE03F0E4FF8046894647
:104BF000029803F075FE03F0DDFFCDE90401009893
:104C000003F06EFE03F0D9FF06000F00019803F0D9
:104C100067FE03F0D2FF82468B4642464B46200099
:104C2000290003F085FEDDE9042303F081FE8046C0
:104C3000894652465B463000390003F079FE040095
:104C40000D00029803F04CFE03F0B7FF22002B008A
:104C500003F06EFE42464B4604F072F803F03AFF52
:104C60000690009803F03CFE03F0A7FF04000D003F
:104C7000019803F035FE03F09DFF804689460298B7
:104C800003F02EFE03F096FFCDE90401009803F037
:104C900027FE03F08FFF06000F00019803F020FEAF
:104CA00003F08BFF82468B4642464B46200029008C
:104CB00003F03EFEDDE9042303F03AFE8046894618
:104CC00052465B463000390003F032FE04000D000E
:104CD000029803F005FE03F070FF22002B0003F0A2
:104CE00027FE02000B004046494603F069FF03F02F
:104CF000F1FE0790009803F0F3FD03F05BFF040062
:104D00000D00019803F0ECFD03F057FF8046894643
:104D1000029803F0E5FD03F04DFFCDE90401009892
:104D200003F0DEFD03F049FF06000F00019803F0D9
:104D3000D7FD03F03FFF82468B4642464B4620009C
:104D4000290003F0F5FDDDE9042303F0F1FD8046C1
:104D5000894652465B463000390003F0E9FD040005
:104D60000D00029803F0BCFD03F027FF22002B008A
:104D700003F0DEFD42464B4603F0E2FF03F0AAFEDD
:104D80000890009803F0ACFD03F014FF04000D0040
:104D9000019803F0A5FD03F00DFF804689460298B7
:104DA00003F09EFD03F009FFCDE90401009803F034
:104DB00097FD03F002FF06000F00019803F090FD3D
:104DC00003F0FBFE82468B4642464B4620002900FC
:104DD00003F0AEFDDDE9042303F0AAFD8046894619
:104DE00052465B463000390003F0A2FD04000D007E
:104DF000029803F075FD03F0DDFE22002B0003F0A6
:104E000097FD02000B004046494603F0D9FE03F02F
:104E100061FE09900B9806A91022FDF70BFF0DB05B
:104E2000BDE8F08FDF59375FDCA54C40E12E6542CD
:104E300000B587B001A8142101F000FEDFF8B0032F
:104E400001905FF4E130029095208DF80D009420E0
:104E50008DF80C0001208DF80E000FF2D1000490A7
:104E600001A984B068461422FDF7E4FE0FBC03F0EC
:104E700020FA01A984B068461422FDF7DBFE0FBCBE
:104E800003F003FC07B000BD00B587B001A81421F2
:104E900001F0D4FDDFF85C0301905FF4E130029093
:104EA0005E208DF80D005F208DF80C0001A984B004
:104EB00068461422FDF7BEFE0FBC03F0FAF907B0F6
:104EC00000BD00B587B001A8142101F0B7FDDFF8DF
:104ED000280301905FF4E130029064208DF80D000A
:104EE00065208DF80C0001208DF80E000FF2CD101A
:104EF000049001A984B068461422FDF79BFE0FBC04
:104F000003F0D7F901A984B068461422FDF792FE98
:104F10000FBC03F0BAFB07B000BD10B504002100C0
:104F200049B2DFF8D00203F0ABFB10BD30B5A1B041
:104F30000025AF4803F09DFB04000120FDF7C0FCF5
:104F400064B22000202800F09180612826D06428D7
:104F50005CD0652852D0662874D068282CD0692887
:104F60005CD06A2844D06B285ED06C2878D06F283B
:104F700070D071280AD072285CD073282AD0752886
:104F800030D077281ED0792810D07EE09B4800686A
:104F9000401C9A4908600020050076E097480068A8
:104FA000401E96490860002005006EE09348642189
:104FB00001600020050068E09048002101600020A9
:104FC000050062E08D484068401C8C494860012023
:104FD00005005AE089484068401E88494860012021
:104FE000050052E0854864214160012005004CE045
:104FF0008248002141600120050046E07F4880682A
:10500000401C7E498860022005003EE07B488068A5
:10501000401E7A4988600220050036E07748642106
:1050200081600220050030E0744800218160022088
:1050300005002AE07148C068401C7049C860032020
:10504000050022E06D48C068401E6C49C86003201E
:1050500005001AE069486421C1600320050014E0DE
:1050600066480021C160032005000EE0634800216E
:1050700001606248002141606048002181605F4812
:105080000021C16004200500FFE7042D0CDA5B4815
:1050900050F825302A005A4900A8FFF79FFB00A9C5
:1050A0005348FEF71EF907E0564900A8FFF796FBA4
:1050B00000A94F48FEF715F921B030BD2DE9FF4199
:1050C0004D4803F0D6FA80460420FDF7F9FB4A4923
:1050D000404640B203F0BEFF0400E4B2012C31D1DF
:1050E000454902A804F082F8012840F07F8008209A
:1050F000FDF7E6FB444800210160BDF90800FEF71A
:105100005FFF4249FEF776FF41490860BDF90A009A
:10511000FEF756FF3D49FEF76DFF3E490860BDF9B9
:105120000C00FEF74DFF3949FEF764FF3A4908606D
:10513000BDF90E00FEF744FF3849FEF75BFF384922
:10514000086053E0E4B2032C50D12B49354804F0F9
:10515000AAF801284AD10820FDF7B2FB3248012104
:10516000017004F077F9012840D100F069FB0500D7
:105170002E480068281A2E4908602C48056004F063
:1051800094FA066804F091FA4768300025490969E5
:10519000FEF730FF03F0A4FB31F00041254A264B17
:1051A00004F08EFA01D20020060038001D4909697A
:1051B000FEF720FF03F094FB31F000411D4A1E4B27
:1051C00004F07EFA01D2002007001C4801901C4820
:1051D000009017480068FEF7FDFE1A49FEF70AFF27
:1051E000030000223900300004F067F9BDE8FF81B8
:1051F00000A00E4000C0064000B00E40F80DFF1F9A
:10520000A8C200006CC20000F00DFF1F000020418A
:10521000080EFF1F100EFF1F0C0EFF1F0000C842DC
:10522000140EFF1F180EFF1F000FFF1F380EFF1F69
:105230002C0EFF1FB81E85EB51B88E3F340EFF1F9A
:10524000300EFF1F00007A4400B597B009A8342142
:1052500001F0F4FB2448099005208DF8290067200F
:105260008DF8340068208DF83A0069208DF83B00F5
:105270006A208DF83C000020109000201190002042
:10528000149000201290002015900020139009A97E
:1052900084B068463422FDF7CDFC0FBC04F028FA38
:1052A00017B000BD70B504000D000026EDB2012D51
:1052B00008D1012301222100C9B20B4804F058FD96
:1052C00006000DE0EDB2002D08D1002301222100DF
:1052D000C9B2054804F04CFD060001E000200600BC
:1052E0003000C0B270BD000000C00A4038B50400F4
:1052F000002501215020FFF7D5FF5020FDF7CAFE01
:1053000000200500062D06DA01210020FFF7CAFF64
:1053100028556D1CF6E700210020FFF7C3FFA071A0
:105320000120FDF7B7FE31BD00B58BB001A81021FB
:1053300001F084FB05A8142101F080FB7348019063
:1053400000208DF8090017208DF8080022208DF824
:105350000A0023208DF80B000020049001208DF816
:105360000C0001A80FC804F085FE694805905FF4A1
:105370000010069001208DF8200000208DF82100FB
:1053800005A984B068461422FDF754FC0FBC02F056
:10539000C9FA0A20FDF768FE00F056F800F082F81E
:1053A0000BB000BD38B5040000250020ADF80000AA
:1053B00000AA02212000C0B200F036F89DF80000DB
:1053C00000029DF8011050FA81F00500280000B29B
:1053D00032BD30B585B00400002500AA0E213B2067
:1053E00000F022F800200500072D0DDA00A810F8C3
:1053F0001500000200A911EB4501497850FA81F02F
:1054000024F815006D1CEFE705B030BD38B5040079
:105410000D00022000902B00DBB22200D2B26821E6
:105420003A4804F097FF31BD7CB504000D0016002A
:105430000220019000962B00DBB22200D2B268213C
:10544000324804F0B5FF73BD80B500216B20FFF733
:10545000DDFF01211920FFF7D9FF06211A20FFF7F0
:10546000D5FF18211B20FFF7D1FF01211C20FFF7DA
:10547000CDFF01BD38B504000D00022000902B00C7
:10548000DBB22200D2B20C21204804F063FF31BD10
:1054900010B5040002232200D2B20C211B4804F0F4
:1054A000EFFF10BD80B502213720FFF7AFFF0121CC
:1054B0000A20FFF7DFFF01BD80B501210A20FFF7B9
:1054C000D9FF01BD38B5002400250220FFF7E0FF19
:1054D000012805D0641CB4F5FA6FF6DD0120050043
:1054E000002005002800C0B232BD7CB504000D00CC
:1054F00016000220019000962B00DBB22200D2B2EF
:105500000C21024804F054FF73BD00000060064007
:1055100040F00F4030B583B00400002500AA0621FA
:105520000320FFF7E2FF00200500032D0DDA00A89D
:1055300010EB45004078000200A911F8151050FA50
:1055400081F024F815006D1CEFE737BD00B587B07A
:1055500001A8142101F072FA7F48012101707E48F0
:105560000021C1607C483B2181607B484FF475710C
:10557000416079480FF2A1010161774984B0684622
:105580001422FDF757FB0FBC02F0DEFA724984B01B
:1055900068461422FDF74EFB0FBC02F021FB6F485A
:1055A0006F490160002002F0F3F86C4948606B48D5
:1055B0000021017369485FF43021816067480FF270
:1055C00025110161654984B068461422FDF732FB5C
:1055D0000FBC02F0A7F9614984B068461422FDF7B8
:1055E00029FB0FBC02F000FA5E480190172002F080
:1055F000CFF8029001208DF8100000208DF81100E6
:1056000001A984B068461422FDF714FB0FBC02F018
:1056100089F907B000BD000080B553480078002824
:1056200034D14D480021C1604B48002181604A4877
:1056300014214160484984B068461422FDF7FAFA03
:105640000FBC02F081FA444984B068461422FDF789
:10565000F1FA0FBC02F0C4FA44480121016042484B
:10566000012101703D4984B068461422FDF7E2FA39
:105670000FBC02F0DFF93E480078002802D13D4817
:10568000012101703A48002101702AE032480021CE
:10569000C16031483B2181602F484FF475714160F2
:1056A0002D4984B068461422FDF7C4FA0FBC02F0FD
:1056B0004BFA294984B068461422FDF7BBFA0FBCA7
:1056C00002F08EFA2948002101602748002101706C
:1056D000224984B068461422FDF7ACFA0FBC02F0F0
:1056E00083F901BD70B50024002523480668002019
:1056F00002F04EF806422ED020480068012804D15E
:105700001F4820490968016025E01E480068040020
:105710001B480068A04208D2002005001A4800215A
:10572000018014480121017012E015480068041B33
:10573000164800681649B0FBF1F0B4FBF0F0050024
:105740003A20B5FBF0F0104908800A4800210170AA
:1057500007480121017070BDBC05FF1FD005FF1F68
:1057600080F00F4040F00F40F60EFF1F5C08FE4334
:10577000F50EFF1FF40EFF1FA0B004400012FE4301
:10578000E405FF1F14710340F00EFF1F2004FF1FEC
:105790008096980000B587B001A8142101F04EF959
:1057A00000208DF8040000200490012003900020C8
:1057B00002900FF22D00059001A984B068461422D2
:1057C000FDF738FA0FBC02F0BFF901A984B06846B2
:1057D0001422FDF72FFA0FBC02F002FA07B000BD49
:1057E00019480068401C18490860174800684FF4C1
:1057F0007A7148430021154AC2E900011448006843
:10580000401C1349086013480068401C1149086097
:1058100011480068401C1049086010480068401C8E
:105820000E4908600E480068401C0D49086070472A
:10583000094900220A60084909688142FBD3704780
:105840000148006870470000F40DFF1F9005FF1F1E
:10585000E00DFF1FE40DFF1FE80DFF1FEC0DFF1F04
:10586000F00DFF1F00B587B001A8142101F0E6F884
:10587000DFF8280401901A2001F08AFF029000202E
:105880008DF810005FF4302003900FF2C5100590E2
:1058900001A984B068461422FDF7CCF90FBC02F0D0
:1058A00041F801A984B068461422FDF7C3F90FBC82
:1058B00002F09AF8DFF8E40301901B2001F068FF82
:1058C000029000208DF810005FF4302003900FF25A
:1058D0008110059001A984B068461422FDF7AAF949
:1058E0000FBC02F01FF801A984B068461422FDF72E
:1058F000A1F90FBC02F078F8DFF8A00301901C209A
:1059000001F046FF029000208DF810005FF4302077
:1059100003900FF23D10059001A984B0684614224F
:10592000FDF788F90FBC01F0FDFF01A984B06846BE
:105930001422FDF77FF90FBC02F056F8DFF85C0384
:1059400001901D2001F024FF029000208DF810002E
:105950005FF4302003900FF2F900059001A984B0A4
:1059600068461422FDF766F90FBC01F0DBFF01A9C0
:1059700084B068461422FDF75DF90FBC02F034F8DC
:10598000DFF81C030190052001F002FF02900020C7
:105990008DF810005FF4302003900FF2091005908D
:1059A00001A984B068461422FDF744F90FBC01F048
:1059B000B9FF01A984B068461422FDF73BF90FBC7A
:1059C00002F012F8B6480190062001F0E1FE0290C4
:1059D00000208DF810005FF4302003900FF2C50016
:1059E000059001A984B068461422FDF723F90FBC85
:1059F00001F098FF01A984B068461422FDF71AF956
:105A00000FBC01F0F1FFA74803210170A548002158
:105A1000C160A44864218160A24800214160A1487E
:105A20000FF2AD0101619F4984B068461422FDF771
:105A300001F90FBC02F088F89A4984B06846142234
:105A4000FDF7F8F80FBC02F0CBF807B000BD00007E
:105A500010B5954804681A2001F09AFE044202D05D
:105A6000002000F044F8904804681B2001F090FEEC
:105A7000044202D0012000F03AF88B4804681C2050
:105A800001F086FE044202D0022000F030F8864881
:105A900004681D2001F07CFE044202D0032000F0C7
:105AA00026F810BD10B581480468052001F070FE8D
:105AB000044202D0042000F01AF87C480468062052
:105AC00001F066FE044202D0052000F010F810BD7F
:105AD0000020774901220A7000210800062805DA13
:105AE0007449002241F82020401CF7E7704738B580
:105AF00004000025E4B2002C09D0022C41D023D3AD
:105B0000042C78D05AD3052C00F09280ADE06A487E
:105B10000068012804D1694869490968016012E0F8
:105B20006648006866490968401A0500012D0ADBCD
:105B3000644800686449B0FBF1F0B5FBF0F05D49E2
:105B4000086000F093F890E060480068012804D1F4
:105B50005A485B490968416012E058484068584912
:105B60000968401A0500012D0ADB564800685649AD
:105B7000B0FBF1F0B5FBF0F04E49486000F076F86C
:105B800073E053480068012804D14C484C49096827
:105B9000816012E04948806849490968401A050057
:105BA000012D0ADB474800684749B0FBF1F0B5FB1F
:105BB000F0F04049886000F059F856E04548006828
:105BC000012804D13D483E490968C16012E03B48C4
:105BD000C0683B490968401A0500012D0ADB3948B5
:105BE00000683949B0FBF1F0B5FBF0F03149C8600D
:105BF00000F03CF839E038480068012804D12F480B
:105C00002F490968016112E02C4800692C49096894
:105C1000401A0500012D0ADB2A4800682A49B0FB1A
:105C2000F1F0B5FBF0F02349086100F01FF81CE02B
:105C30002A480068012804D12048214909684161A7
:105C400012E01E4840691E490968401A0500012DEE
:105C50000ADB1C4800681C49B0FBF1F0B5FBF0F012
:105C60001449486100F002F8FFE731BD80B51048E3
:105C7000002101700B4984B068461422FCF7DAFF5A
:105C80000FBC01F061FF074984B068461422FCF79D
:105C9000D1FF0FBC01F0A4FF01BD000000F00F40D8
:105CA00040F00F406009FF1FA0900440A0A00440F6
:105CB000F80EFF1F4809FF1F6802FE437409FF1F0B
:105CC000347103402004FF1F40420F006C02FE436A
:105CD0007002FE437402FE43140AFE43180AFE4398
:105CE00000B58BB001A8102100F0A8FEDD4801909E
:105CF00017208DF8080000208DF8090046208DF847
